:020000040800F2
:100000000000022059460008A92F0008AD2F000863
:10001000B12F0008B52F0008B92F0008000000001C
:10002000000000000000000000000000E1270008C0
:10003000BD2F0008000000009D270008CD26000805
:10004000A9460008A9460008A9460008A9460008D4
:10005000A9460008A9460008A9460008A9460008C4
:10006000A9460008A9460008A9460008A9460008B4
:10007000A9460008A9460008A9460008A9460008A4
:10008000C12F0008A9460008D5170008A946000896
:10009000A9460008A9460008A9460008A946000884
:1000A000A9460008A9460008A9460008A946000874
:1000B000A9460008A9460008A9460008A946000864
:1000C000A9460008A9460008A9460008A946000854
:1000D000A9460008A9460008A9460008A946000844
:1000E000A9460008A9460008A9460008A946000834
:1000F000A9460008A9460008A9460008A946000824
:10010000A9460008A9460008C52F0008A94600080E
:10011000A9460008A9460008A9460008A946000803
:10012000A9460008A9460008A9460008A9460008F3
:10013000A94600080000000000000000A9460008D1
:10014000A9460008A9460008A9460008A9460008D3
:10015000A9460008A9460008A9460008A9460008C3
:10016000A9460008A9460008A9460008A9460008B3
:10017000A9460008A9460008A9460008000000009A
:1001800000000000A9460008000000000000000078
:10019000A94600080000000000000000A946000871
:1001A000000000000000000000000000A946000858
:1001B000A9460008A9460008A9460008A946000863
:0401C000A946000844
:1001D00081F0004102E000BF83F0004330B54FEAF8
:1001E00041044FEA430594EA050F08BF90EA020F65
:1001F0001FBF54EA000C55EA020C7FEA645C7FEAF8
:10020000655C00F0E2804FEA5454D4EB5555B8BF1A
:100210006D420CDD2C4480EA020281EA030382EA8B
:10022000000083EA010180EA020281EA0303362D1D
:1002300088BF30BD11F0004F4FEA01314FF4801CF0
:100240004CEA113102D0404261EB410113F0004F02
:100250004FEA03334CEA133302D0524263EB4303B9
:1002600094EA050F00F0A780A4F10104D5F1200E57
:100270000DDB02FA0EFC22FA05F2801841F10001B2
:1002800003FA0EF2801843FA05F359410EE0A5F186
:1002900020050EF1200E012A03FA0EFC28BF4CF0B7
:1002A000020C43FA05F3C01851EBE37101F000456D
:1002B00007D54FF0000EDCF1000C7EEB00006EEB7A
:1002C0000101B1F5801F1BD3B1F5001F0CD3490804
:1002D0005FEA30004FEA3C0C04F101044FEA44525B
:1002E00012F5800F80F09A80BCF1004F08BF5FEAE2
:1002F000500C50F1000041EB045141EA050130BDC2
:100300005FEA4C0C404141EB0101013C28BFB1F5D3
:10031000801FE9D291F0000F04BF01460020B1FA1E
:1003200081F308BF2033A3F10B03B3F120020CDAF1
:100330000C3208DD02F1140CC2F10C0201FA0CF0CF
:1003400021FA02F10CE002F11402D8BFC2F1200C34
:1003500001FA02F120FA0CFCDCBF41EA0C019040EA
:10036000E41AA2BF01EB0451294330BD6FEA040433
:100370001F3C1CDA0C340EDC04F11404C4F120021E
:1003800020FA04F001FA02F340EA030021FA04F330
:1003900045EA030130BDC4F10C04C4F1200220FA87
:1003A00002F001FA04F340EA0300294630BD21FAC5
:1003B00004F0294630BD94F0000F83F4801306BF8B
:1003C00081F480110134013D4EE77FEA645C18BF7F
:1003D0007FEA655C29D094EA050F08BF90EA020F16
:1003E00005D054EA000C04BF1946104630BD91EA0E
:1003F000030F1EBF0021002030BD5FEA545C05D111
:100400004000494128BF41F0004130BD14F580044F
:100410003CBF01F5801130BD01F0004545F0FE41C3
:1004200041F470014FF0000030BD7FEA645C1ABFF8
:10043000194610467FEA655C1CBF0B46024650EA2F
:10044000013406BF52EA033591EA030F41F400215B
:1004500030BD00BF90F0000F04BF0021704730B5E1
:100460004FF4806404F132044FF000054FF00001B6
:1004700050E700BF90F0000F04BF0021704730B577
:100480004FF4806404F1320410F0004548BF40424C
:100490004FF000013EE700BF42004FEAE2014FEAA1
:1004A00031014FEA02701FBF12F07F4393F07F4F7C
:1004B00081F06051704732F07F4208BF704793F07F
:1004C0007F4F04BF41F40021704730B54FF4607492
:1004D00001F0004521F000411CE700BF50EA010295
:1004E00008BF704730B54FF000050AE050EA01023E
:1004F00008BF704730B511F0004502D5404261EBAE
:1005000041014FF4806404F132045FEA915C3FF4EE
:10051000D8AE4FF003025FEADC0C18BF03325FEA8B
:10052000DC0C18BF033202EBDC02C2F1200300FA3C
:1005300003FC20FA02F001FA03FE40EA0E0021FA61
:1005400002F11444BDE600BF70B54FF0FF0C4CF44F
:10055000E06C1CEA11541DBF1CEA135594EA0C0F01
:1005600095EA0C0F00F0DEF82C4481EA030621EA3C
:100570004C5123EA4C5350EA013518BF52EA033577
:1005800041F4801143F4801338D0A0FB02CE4FF029
:100590000005E1FB02E506F00042E0FB03E54FF059
:1005A0000006E1FB03569CF0000F18BF4EF0010E51
:1005B000A4F1FF04B6F5007F64F5407404D25FEA4D
:1005C0004E0E6D4146EB060642EAC62141EA555100
:1005D0004FEAC52040EA5E504FEACE2EB4F1FD0C42
:1005E00088BFBCF5E06F1ED8BEF1004F08BF5FEAC0
:1005F000500E50F1000041EB045170BD06F0004672
:1006000046EA010140EA020081EA0301B4EB5C041E
:10061000C2BFD4EB0C0541EA045170BD41F4801116
:100620004FF0000E013C00F3AB8014F1360FDEBF3B
:10063000002001F0004170BDC4F10004203C35DA17
:100640000C341BDC04F11404C4F1200500FA05F39A
:1006500020FA04F001FA05F240EA020001F000423B
:1006600021F0004110EBD37021FA04F642EB0601B1
:100670005EEA430E08BF20EAD37070BDC4F10C04DB
:10068000C4F1200500FA04F320FA05F001FA04F29F
:1006900040EA020001F0004110EBD37041F100018B
:1006A0005EEA430E08BF20EAD37070BDC4F1200596
:1006B00000FA05F24EEA020E20FA04F301FA05F2FE
:1006C00043EA020321FA04F001F0004121FA04F2A6
:1006D00020EA020000EBD3705EEA430E08BF20EA76
:1006E000D37070BD94F0000F0FD101F000464000B0
:1006F00041EB010111F4801F08BF013CF7D041EA32
:10070000060195F0000F18BF704703F00046520035
:1007100043EB030313F4801F08BF013DF7D043EA06
:100720000603704794EA0C0F0CEA135518BF95EABC
:100730000C0F0CD050EA410618BF52EA4306D1D143
:1007400081EA030101F000414FF0000070BD50EA62
:10075000410606BF1046194652EA430619D094EAEC
:100760000C0F02D150EA013613D195EA0C0F05D1D6
:1007700052EA03361CBF104619460AD181EA03012A
:1007800001F0004141F0FE4141F470014FF00000E2
:1007900070BD41F0FE4141F4780170BD70B54FF07D
:1007A000FF0C4CF4E06C1CEA11541DBF1CEA1355FD
:1007B00094EA0C0F95EA0C0F00F0A7F8A4EB0504DF
:1007C00081EA030E52EA03354FEA013100F08880D6
:1007D0004FEA03334FF0805545EA131343EA12639F
:1007E0004FEA022245EA111545EA10654FEA002654
:1007F0000EF000419D4208BF964244F1FD0404F50D
:10080000407402D25B084FEA3202B61A65EB030568
:100810005B084FEA32024FF480104FF4002CB6EB25
:10082000020E75EB030E22BFB61A754640EA0C00A5
:100830005B084FEA3202B6EB020E75EB030E22BFE5
:10084000B61A754640EA5C005B084FEA3202B6EB26
:10085000020E75EB030E22BFB61A754640EA9C00E5
:100860005B084FEA3202B6EB020E75EB030E22BFB5
:10087000B61A754640EADC0055EA060E18D04FEA73
:10088000051545EA16754FEA06164FEAC30343EA13
:1008900052734FEAC2025FEA1C1CC0D111F4801FE0
:1008A0000BD141EA00014FF000004FF0004CB6E7D9
:1008B00011F4801F04BF01430020B4F1FD0C88BF78
:1008C000BCF5E06F3FF6AFAEB5EB030C04BFB6EB83
:1008D000020C5FEA500C50F1000041EB045170BD76
:1008E0000EF0004E4EEA113114EB5C04C2BFD4EBA3
:1008F0000C0541EA045170BD41F480114FF0000E27
:10090000013C90E645EA060E8DE60CEA135594EAA2
:100910000C0F08BF95EA0C0F3FF43BAF94EA0C0FA5
:100920000AD150EA01347FF434AF95EA0C0F7FF41A
:1009300025AF104619462CE795EA0C0F06D152EA6E
:1009400003353FF4FDAE1046194622E750EA410652
:1009500018BF52EA43067FF4C5AE50EA41047FF463
:100960000DAF52EA43057FF4EBAE12E74FF0FF3CC8
:1009700006E000BF4FF0010C02E000BF4FF0010C99
:100980004DF804CD4FEA410C7FEA6C5C4FEA430C12
:1009900018BF7FEA6C5C1BD001B050EA410C0CBF61
:1009A00052EA430C91EA030F02BF90EA020F0020C3
:1009B000704710F1000F91EA030F58BF994208BF2A
:1009C00090422CBFD8176FEAE37040F001007047E7
:1009D0004FEA410C7FEA6C5C02D150EA013C07D13E
:1009E0004FEA430C7FEA6C5CD6D152EA033CD3D089
:1009F0005DF8040B704700BF8446104662468C4683
:100A00001946634600E000BF01B5FFF7B7FF0028B5
:100A100048BF10F1000F01BD4DF808EDFFF7F4FFDE
:100A20000CBF012000205DF808FB00BF4DF808ED69
:100A3000FFF7EAFF34BF012000205DF808FB00BF8C
:100A40004DF808EDFFF7E0FF94BF012000205DF8AE
:100A500008FB00BF4DF808EDFFF7CEFF94BF012063
:100A600000205DF808FB00BF4DF808EDFFF7C4FF5C
:100A700034BF012000205DF808FB00BF4FEA410CA5
:100A80007FEA6C5C02D150EA013C0AD14FEA430C88
:100A90007FEA6C5C02D152EA033C02D14FF00000C5
:100AA00070474FF0010070474FEA410212F5001203
:100AB00015D211D56FF47873B3EB625212D94FEAA5
:100AC000C12343F0004343EA505311F0004F23FA8F
:100AD00002F018BF404270474FF00000704750EAE4
:100AE000013005D111F0004008BF6FF000407047A1
:100AF0004FF00000704700BF4A0011D212F50012FB
:100B000011D20DD56FF47873B3EB62520ED44FEA65
:100B1000C12343F0004343EA505323FA02F07047E5
:100B20004FF00000704750EA013002D14FF0FF3023
:100B300070474FF0000070477BB972B90029BEBF03
:100B400000204FF0004106E008BF00281CBF6FF0F6
:100B500000414FF0FF3000F057B8ADF1080C6DE9DF
:100B600004CE002909DB002B1ADB04F0A9F8DDF81C
:100B700004E0DDE9022304B07047404261EB41012B
:100B8000002B1BDB04F09CF8DDF804E0DDE9022318
:100B900004B0404261EB4101524263EB43037047B2
:100BA000524263EB430304F08BF8DDF804E0DDE927
:100BB000022304B0404261EB41017047524263EBB3
:100BC000430304F07DF8DDF804E0DDE9022304B01E
:100BD000524263EB4303704753B94AB9002908BF37
:100BE00000281CBF4FF0FF314FF0FF3000F00CB871
:100BF000ADF1080C6DE904CE04F062F8DDF804E014
:100C0000DDE9022304B07047704700BF10F8012BE4
:100C100011F8013B012A28BF9A42F7D0D01A704739
:100C2000034613F8012B002AFBD1181A013870472C
:100C300001F0FF01102A2BDB10F0070F08D010F88D
:100C4000013B013A8B422DD010F0070F42B3F6D191
:100C5000F0B441EA012141EA014122F007047FF0AA
:100C600000070023F0E80256083C85EA010586EA01
:100C7000010685FA47F5A3FA87F586FA47F6A5FA3D
:100C800087F68EB9EED1F0BC01F0FF0102F0070249
:100C900032B110F8013B013A83EA010313B1F8D1F4
:100CA0000020704701387047002D06BF35460338D5
:100CB000073815F0010F07D1013015F4807F02BF0E
:100CC000013015F4C03F0130F0BC0138704700BF5F
:100CD0000348044B834202D0034B03B118477047CB
:100CE0002011002020110020000000000548064BC4
:100CF0001B1AD90F01EBA301491002D0034B03B11A
:100D0000184770472011002020110020000000002B
:100D100010B5064C237843B9FFF7DAFF044B13B143
:100D20000448AFF300800123237010BD2011002080
:100D3000000000004073000808B5054B1BB10549D1
:100D40000548AFF30080BDE80840FFF7CFBF00BF04
:100D500000000000241100204073000858B908B5B5
:100D6000064B1A792AB90648186001221A7102F056
:100D700079FF024808BD0020704700BF68110020BD
:100D8000941C00202DE9F04F8BB00C46BDF850604C
:100D9000BDF854E09DF858C09DF85C509DF86090F7
:100DA0009DF864A09DF8681010B10779012F02D05A
:100DB0000BB0BDE8F08F234FC4EBC40807EB480825
:100DC00018F805B04FEAC408BBF1000FF0D1BCF130
:100DD000000C18BF4FF0010C003918BF0121089119
:100DE000B9F1000118BF01210691BAF1000118BF45
:100DF00001210791012C4FF00E01CDE90023CDE92F
:100E0000026ECDF810C0059509910DD0A8EB04082D
:100E100007EB48076946006802F094FE7B5D0133EA
:100E20007B550BB0BDE8F08F46EA0E063343134303
:100E3000ECD155EA0909E9D1BAF1010F08BF0591D2
:100E4000E4E700BF3C1100202DE9F04188B00C46DA
:100E5000002101919DF838609DF83C10109D10B163
:100E60000779012F04D00027384608B0BDE8F0818B
:100E7000D0F8008073B303920423003E18BF01260C
:100E8000049376000023059606918DF81C3002F03D
:100E9000D3FD064603E001F0D3FBA8420AD8D8F8F8
:100EA00000309B6803F04073B3F1407F4FF00101C5
:100EB0003046F0D001AB224602A9404602F000FFC6
:100EC00050B1404602F056FF119B1860384608B0FA
:100ED000BDE8F0810292D0E7404602F04BFF119B43
:100EE0001860C0E72DE9F04788B0DDF84C8010B1FC
:100EF0000779012F04D00027384608B0BDE8F087F5
:100F000015461E46D0F800A00C4602F095FD149A36
:100F100000238146136003E001F092FB404508D8AE
:100F20002146504602F0B8FF034601214846002BF7
:100F3000F2D02146504602F0AFFF0028DCD02B460D
:100F400001AA2146504602F029FF0028D4D12146AB
:100F5000504602F0A1FFDDE90131039A149C002AFA
:100F600020601098049A16BF0B46002101213360BF
:100F700001701199059B0A70129A1370BBE700BFAC
:100F8000704700BF01690A6802F00402002A0346A4
:100F900014BF0120002008D010B402226FF0040416
:100FA0000C609A725DF8044B70477047704700BF41
:100FB00030B4234D0469AC422AD1224D4FF0000CCD
:100FC000012B2C6185F807C01FD022B36B7A082B48
:100FD0001BD0C368EB6003682B6043696B61837946
:100FE000AB7103792B71E36A029A23F47003134304
:100FF0000129E36207D004291CD0022903D16368C8
:1010000043F02003636008236B720E4830BC7047C6
:10101000002030BC7047AB7A082BF6D043796B7157
:10102000022903D1636843F0800363600823054805
:10103000AB72EBE7A36843F44073A360E3E700BF40
:10104000002001407011002003699A68D20703D480
:101050009A6842F001029A60704700BF03692BB1A1
:1010600001293AD0042903D002291FD0012070475A
:10107000996811F4401FF9D101218172996841F4F6
:1010800080019960817A02295FFA81FCFAD1417965
:1010900041B138331CFB012C53F8041F22F8021B0A
:1010A0009445F9D10823837200207047817A202962
:1010B00002D0817A0229D9D141794FF0080C80F809
:1010C0000AC00029F0D0383302EB410053F8041F66
:1010D00022F8021B8242F9D1E6E79A6812F4401F17
:1010E000C4D1827A022A05D0827A082A02D01A68EC
:1010F0005207BBD5827A082A0CBF012220228272B5
:101100009A6842F480029A60CEE700BF036910B487
:101110009C68E40703D59C6824F001049C605C682B
:10112000640603D55C6824F040045C605C6864017C
:1011300003D55C6824F080645C60A2B1012903D00F
:10114000022921D004291AD0002240218271027183
:101150004172D96AC26021F4700102604261D962B1
:101160005DF8044B70474024022942718472F7D124
:101170005A685DF8044B22F080025A6070479A6802
:1011800022F440729A60DFE75A6822F020025A6027
:10119000DAE700BFCB0703D50368DA6852064DD5FE
:1011A0008B0703D50368DA68920742D54B0703D54E
:1011B0000368DA68520737D50B0703D50368DA6886
:1011C00012072CD5CB0603D50368DA68D20621D5E1
:1011D0008B0603D50368DA68D20716D54B0603D50C
:1011E0000368DA6812060BD5090603D50368DA68C6
:1011F000920600D57047DA6842F02002DA60704744
:10120000DA6842F08002DA60EEE7DA6842F0010262
:10121000DA60E3E7DA6842F01002DA60D8E7DA6809
:1012200042F00802DA60CDE7DA6842F00402DA60E0
:10123000C2E7DA6842F00202DA60B7E7DA6842F041
:101240004002DA60ACE700BFCB0703D50368DA6879
:1012500052064CD48B0703D50368DA68920741D451
:101260004B0703D50368DA68520736D40B0703D55A
:101270000368DA6812072BD4CB0603D50368DA6853
:10128000D20620D48B0603D50368DA68D20715D5B9
:101290004B0603D50368DA6812060AD4090607D597
:1012A0000368DA68920603D5DA6822F02002DA6071
:1012B0007047DA6822F08002DA60EFE7DA6822F03D
:1012C0000102DA60E4E7DA6822F01002DA60D9E7B6
:1012D000DA6822F00802DA60CEE7DA6822F0040267
:1012E000DA60C3E7DA6822F00202DA60B8E7DA68A7
:1012F00022F04002DA60ADE70229036814D00D4AFB
:10130000934204D002F58062934200D070470329D3
:1013100005D00429FAD11A6A42F001021A621A6A47
:1013200042F004021A6270471A6A42F001021A621D
:10133000704700BF000001400229036814D00D4A25
:10134000934204D002F58062934200D07047032993
:1013500005D00429FAD11A6A22F001021A621A6A27
:1013600022F004021A6270471A6A22F001021A621D
:10137000704700BF000001400229036814D00D4AE5
:10138000934204D002F58062934200D07047032953
:1013900005D00429FAD11A6A42F010021A621A6AB8
:1013A00042F040021A6270471A6A42F010021A6252
:1013B000704700BF000001400229036814D00D4AA5
:1013C000934204D002F58062934200D07047032913
:1013D00005D00429FAD11A6A22F010021A621A6A98
:1013E00022F040021A6270471A6A22F010021A6252
:1013F000704700BF000001400229036814D00D4A65
:10140000934204D002F58062934200D070470329D2
:1014100005D00429FAD11A6A42F480721A621A6A53
:1014200042F480621A6270471A6A42F480721A6249
:10143000704700BF000001400229036814D00D4A24
:10144000934204D002F58062934200D07047032992
:1014500005D00429FAD11A6A22F480721A621A6A33
:1014600022F480621A6270471A6A22F480721A6249
:10147000704700BF000001400C4B0168994212D137
:101480000A680B4812F0600201600AD10B68074B32
:1014900002715A6C42F400425A641B6B4371044857
:1014A00070470122F3E700231960FFDE00000140CE
:1014B0008C1100200F3812010106C3B2D2B206D43B
:1014C00003F1604303F5614383F800237047034948
:1014D00003F00F0319440A76704700BFFCEC00E0EC
:1014E00010B5094C23785A1C227023B1074A237087
:1014F0000121116010BD62B600F076FB72B6237850
:10150000013BDBB2237010BD1A1200201C12002018
:10151000F8B5234C234D002727702F7001DF02F010
:1015200065FA01F089F901F089F801F097FC01F002
:1015300079FC01F0EDFB01F0F5F901F04BFB01F056
:101540002DFB194B1E68376001F032F800F0FAFEEF
:1015500072B69FED160A01F0C1F83368B3FA83F34F
:101560005B092B7062B662B606E03368003B18BFB9
:101570000123237023785BB92B7803F0FF07002B3E
:10158000F3D100F0BFFF01F023F872B63846F8BD82
:101590004FF0E022136923F001031361ECE700BF71
:1015A0001912002018120020287D0008CDCC4C3ED6
:1015B0002DE9F04F7C4B7D487D497E4A8FB04FF43A
:1015C000F814CDE908437C4BCDE90A0106A8CDE922
:1015D0000C2303F0F1FE06A803F0E0FDD0E9046758
:1015E0008346D0E900A9D0F8088007F26C70FEF7B6
:1015F00041FF724B04460D460022CDE90445FEF73B
:10160000A3FF41EC100B03F087F86D4B002220463E
:1016100029468DED000BFFF7C1F841EC100B03F0EC
:101620007BF8684B0022204629468DED020BFFF720
:10163000B5F841EC100B03F06FF84FA3D3E900238A
:101640002046294655EC104BFEF77EFFDDE90023CE
:10165000FEF7C4FDDDE90223FEF7BEFD22462B4660
:10166000FEF7BCFD0EAB03EB4603044633F9180C42
:101670000D46FEF7FFFE02460B4620462946FEF7C2
:10168000ADFD0446DBF80C000D46FEF7F3FE024606
:101690000B4620462946FEF7A1FD012E04460D46C5
:1016A0000ADD494B9F4237D120462946474B00224D
:1016B000FEF794FD04460D464046FEF7DBFE30A3E0
:1016C000D3E90023FEF740FF064648460F46FEF7E3
:1016D000D1FE3F4B0022FEF737FF02460B46304655
:1016E0003946FEF77BFD064650460F46FEF7C2FE22
:1016F00002460B4630463946FEF770FD22A3D3E979
:101700000023FFF74BF822462B46FEF767FD41EC1E
:10171000100B0FB0BDE8F08F9FED1D1B9DED040B6E
:1017200002F0C4FF51EC100BFFF7BEF90028B8BF60
:10173000043070B99FED181B9DED040B02F0B6FF4D
:1017400051EC100BFFF7B0F90028B8BF6430002847
:10175000AAD19FED131B9DED040B02F0A7FF51ECE6
:10176000100BFFF7A1F90028B8BF00F5C8700028DA
:101770009AD0A1E7AFF300800000000000D07640CF
:10178000000000000020AC40000000000018F54000
:101790000000000000001040000000000000594060
:1017A00000000000000079403B005A0078009700DC
:1017B000B500D400F300110130014E010000D03F0C
:1017C000000059400000794094F8FFFF0000F03F0E
:1017D00000004E40F0B5DB4C2DED028B63681B061C
:1017E00083B007D4BFF36F8FBFF34F8F03B0BDEC4F
:1017F000028BF0BDD448FFF7C5FB0028F2D0D34BD5
:101800006FF0040222601B78012BEBD1D04ED14D3A
:1018100096F82F7AB5F84010E88FCF4AB6F82C3AF0
:101820009383FFB2884282F82270CC491BB200F247
:101830007E81002F40F0CB814FF4E05088618F61B2
:10184000C74CD4ED116AC6ED126A07EE903AB5F9AD
:101850003830D4ED145A94ED156AD4ED168A96ED0D
:10186000138AB8EEE77A07EE903AFAEEC77A95F85F
:10187000463067EE877A67EEA67AB0EEE77A27EE13
:10188000257A27EE067AF4EE478AF1EE10FA48BF81
:10189000F0EE478AEBB996F82E3A002B40F08C8197
:1018A000D2ED067A37EE888AB0EE480A03F038F8AF
:1018B000BDEEC00A10EE103A1BB200EE103AF8EE80
:1018C000C07A95F8453086F82E3A38EE678A86ED6C
:1018D000138AD5ED067A95ED077A28EE278AD4ED9E
:1018E0000E7A28EE078AB4EEE78AF1EE10FA40F19C
:1018F0003D81B0EE480A03F013F8BDEEC00A10EEC9
:10190000103A1BB200EE103AF8EEC07A38EE678A51
:10191000D5ED087A94ED177A28EE278AB4EEE87AA6
:10192000FCEEC87AF1EE10FA17EE903A9BB208D4AA
:1019300094ED187AB4EEE87AF1EE10FAD8BFB0EE72
:10194000687AB5F93020D4ED0F6A1A4404EB8202AC
:10195000D2ED195AB5F934201A4404EB820292ED03
:10196000196AB5F92E201A4404EB820292ED195A35
:10197000B5F932201A4404EB8202D2ED194A002F45
:1019800000F0008107EE903AF8EE677A74EEC64AEE
:1019900038EE678A35EE655AA4EE886AE5EE085A95
:1019A00066EE864AD4ED057A9FED6F5A94ED074AAC
:1019B000E5EE874A66EEA56A64EEA77AE7EE466A28
:1019C00035EE675A94ED047AD4ED035A94ED086A23
:1019D000D7EE267AA7EE665AD4ED066AB0EE657A9F
:1019E000A6EE247AB0EE656AA7EE846AE5EE265A82
:1019F000D4ED097AD4ED026A27EE277A27EE866ABB
:101A000067EEA57A27EE267A26EE266A67EEA67A94
:101A1000B5EEC07AF1EE10FAF26B00F1CA80DFED9C
:101A2000516AB4EE667AF1EE10FAC8BFB0EE667A8B
:101A300013681179DA6ADFED4B5A586BB1FA81F10C
:101A400049090A4406EE902AF8EE666AB5EEC06AC5
:101A500026EE877AC7EE256ABCEEE67A17EE102AE4
:101A6000824218BF5A63F1EE10FA00F19F809FED99
:101A70003D7AB4EE476AF1EE10FAC8BFB0EE476A9D
:101A8000DA6ADFED385A986B0A4407EE102AB8EE8E
:101A9000477AF5EEC07A27EE067AC7EE256ABCEEE5
:101AA000E67A17EE102A824218BF9A63F1EE10FA16
:101AB00079D49FED2C7AF4EE477AF1EE10FAC8BF94
:101AC000F0EE477ADA6ADFED276AF06A0A4407EE39
:101AD000102AB8EE477AD96B67EE277A87EEA67A96
:101AE000FCEEC77A17EE902A8A4218BFDA63022109
:101AF00001AAFFF7B3FAD5ED096AD5ED0A7AD4ED5C
:101B0000005A94ED106A86EEA77AD6ED127AD4EDDB
:101B1000126A27EE257AE7EE067AF4EEE67AF1EE1F
:101B200010FAC6ED127A34DDC6ED126A5AE6002FBD
:101B300053D04FF4E050886100208861D6ED126ADE
:101B4000074C82E60020014070110020181200208E
:101B50002812002000100020601C00200008024015
:101B6000000000200000C84200000000FDEEC87A1E
:101B700017EE903A1BB207EE903AF8EEE77A38EE9D
:101B8000678AC5E694ED0A7AB0EE476AF0EE477AC6
:101B90003EE794ED137AF4EEC77AF1EE10FA48BFFF
:101BA00086ED127A1EE65FED107A8BE71FED126A62
:101BB00066E71FED137A3BE7D5ED036A95ED047AEE
:101BC00067EEA67A67EE877AC2ED067A6AE60020AB
:101BD00088614FF0E0508861B0E74FF0E0508F61CE
:101BE00088612DE6000000002DE9F04F2DED028BFD
:101BF000B14DB24C91B001230CAACDE90332EB1EDA
:101C00002E1F0293AB1ECDE9006306F110022B4696
:101C1000E0680021FFF766F90023F370002200233B
:101C2000C6E902237378042B4CD0A54B96F81EB05E
:101C3000B3F84270B6F81F303A0A5DBA94F8303AF9
:101C40008DF8342096F821200B92002B46D0D4E951
:101C50001001FEF751FFC3B20CAA0392994A8DF806
:101C6000363092883A408DF83520954A92F84820CF
:101C7000642013440422CDE901208DF8373000237D
:101C80000093E06940F221220DA9FFF7DDF80B9BDC
:101C90000BF0010BDE0784F82FBA07D52BB2A4F89E
:101CA0002C3A11B0BDEC028BBDE8F08F844B9B8DBC
:101CB00013FB05F31BB2A4F82C3A11B0BDEC028B58
:101CC000BDE8F08F7368B3F5087FAED115F8043C1A
:101CD000002BAAD13369C6F81E30A6E7FFF768FCCF
:101CE00071A3D3E9002351EC100BFEF72DFC41EC5E
:101CF000100B02F091FDB0EE408AF0EE608A00F029
:101D000091FC002800F03C826F4BD3E900894646E5
:101D100029F00047002003F04FFBCDE90689CDE90B
:101D2000086700F1010A2F46A146002003F044FB9A
:101D3000824580F283803D46DDE90867634B30468B
:101D4000394600224C46DDE90689FEF76FFE002881
:101D500000F0DB805E4B002240464946FEF77AFEEB
:101D6000002800F0BD805A4B002240464946FEF74D
:101D700035FA41EC100B02F04FFD59EC108B554B2E
:101D8000002240464946FEF751FE002800F0E08060
:101D900040464946FEF7B0FE226D0C90052A0346E8
:101DA00000F0B082072A00F02581042A40F0DC8090
:101DB00000F4004202EB104220F4004302EB034324
:101DC000C4F8203A002B00F0BA806FF00042934232
:101DD00080F04682404A414EA2FB0312991A02EB60
:101DE0005102120C06FB123644F2A71303FB06F64F
:101DF00040F6143302FB03F39E423BBF06F1FF366D
:101E0000F61AF61A26F000463046FEF723FB4FF48A
:101E100000124FF07853FEF797FB25A3D3E9002378
:101E2000FEF792FB41EC100B02F0F6FC59EC108B24
:101E300040464946FEF760FEC3B286E0FFF7B8FBB6
:101E400019A3D3E9002351EC100BFEF77DFB41EC05
:101E5000100B02F0E1FCB0EE408AF0EE608A00F078
:101E6000E1FB60B1184BD3E90045DDE906012246EC
:101E70002B46FEF7D1FD00283FF45DAF55E7B0EEED
:101E8000480AF0EE680A00F0AFFB0028EAD151ECF6
:101E9000180B00220023FEF7BFFD002800F086810A
:101EA00000240025E1E700BF00000000C07A604187
:101EB0000000000000206940641C0020281200205F
:101EC00000100020000000205010002000003043CF
:101ED0000000E03F0000F041BD169C061DF301002C
:101EE000CF4B002240464946FEF7BEFD002840F099
:101EF0008381CC4B404649460022FEF76DF941EC08
:101F0000100B02F009FC59EC108BC74B0022404625
:101F10004946FEF78BFDD8B10023002240464946D2
:101F2000FEF798FD034600287FF432AF226D0C9037
:101F3000052A00F0E981072A5CD0042A14D1BB4E9F
:101F4000DFF810932C234FF00008C4F8206AFAE061
:101F5000226D4FF0FF33052A0C9300F0AE81072A63
:101F600048D0042A00F07C81D4F8146ADFF8E882B3
:101F7000DFF8E8E2AE49AF4A23460DF1400C5C467B
:101F80009B460DF1380A731CB3F51C7F47D80BEB49
:101F900086001E46436D83EAD32308EAC3104340FC
:101FA0000EEAC330434083EA93434AF8043BE245D8
:101FB000E9D10E980F9B40094FEA931340F09A80A5
:101FC000002B40F0C980731EB3F51C7FC0F0CD809C
:101FD00041F271539848994FCBF85430012683EA67
:101FE000937307FB03630136B6F51C7F40F8043F8B
:101FF000F5D1C6E79049914E6365002240F26F200B
:10200000013283EA937306FB0323824241F8043FC3
:10201000F6D14FF41C760C93C4F8146AA6E7844BEF
:10202000DBF8546006948B4600279C6D304644F3E1
:102030000009DE6D64F31E0009EA020989EA50090D
:1020400046F3000066F31E04104080EA5400D3F803
:10205000884689EA04045C65D3F88C460237604000
:10206000E22F986503F10803DFD17548069CDFF87D
:10207000C491071D0646D6E90063043063F31E06CB
:1020800043F3000303EA090383EA5603D0F83066FA
:10209000B84283EA060340F8043CEBD16948D1F822
:1020A000E063069400F5C66906F00044D0F8946336
:1020B00050F8047F26F000431C4343F30003134011
:1020C00083EA54037B404845C0F88C33ECD14B6D18
:1020D000D1F8100A069C63F31E00064643F3000085
:1020E000104080EA5600D1F884667040C1F8100AAA
:1020F000012650E71F465B46A3461C46FEF7AAF999
:10210000514B0022FEF720FA80468946C4F8146A33
:102110003846FEF79FF942464B46FEF75FF84B4BB9
:102120000022FEF711FA3AA3D3E90023FEF70CFAD6
:1021300041EC100B02F070FB59EC108B4046494605
:10214000FEF7DAFCC3B2012284F8302A404AC4E91F
:102150001089B2F842707FE51F465B464FF00008D9
:10216000A3464FF000091C46D0E7364B03F51C6729
:10217000BB423FF42DAF53F8040F0028F8D000E71E
:10218000B0EE480AF0EE680A00F02EFA00287FF45C
:10219000BBAD51EC180B00220023FEF73DFC0028DC
:1021A00065D000260027B046B946B3E59FED1A1B5F
:1021B000B0EE480AF0EE680A02F078FA55EC104BDF
:1021C0000022002320462946FEF726FC00287FF443
:1021D00067AE0022002320462946FEF727FC002890
:1021E0003FF443AE204629460BA3D3E90023FDF775
:1021F000F5FF04460D4638E64046494600220023D6
:10220000FEF7A2F980468946C2E500BFAFF3008021
:1022100000000000002069400000C0FFFFFFDF4118
:102220000000E0BF0000E03F0000F041C8DA061CFB
:1022300028120020DFB008997C1200206589076C05
:102240000416002078120020000090410000A03CFD
:10225000001000200000464080562C9D0000C6EF74
:10226000334EDFF8DC90C8234FF000086DE69FED99
:102270002A1BB0EE480AF0EE680A02F017FA59EC91
:10228000108B0022002340464946FEF7C5FB00287C
:1022900087D10022002340464946FEF7C7FB40B1E4
:1022A000404649461CA3D3E90023FDF797FF80462B
:1022B0008946464629F000472CE583EA433383EA02
:1022C00053431C4883EA43163044FEF7C3F81A4BC5
:1022D0004FF0FF32FEF738F911A3D3E90023FEF7E0
:1022E00033F941EC100B02F097FA59EC108B404691
:1022F0004946FEF701FCC3B20E4AC4F81C6AC4F892
:10230000182A20E70028D8D10FF21C09D9E9008942
:102310000A4EA123F0E700BF0000C0FFFFFFDF412E
:102320000000000000206940000000000020644020
:1023300058BEFF7FE83FEB78FFFFEF3D6747F25461
:102340000000694070B5664E664C674B0025ACB026
:102350002822294630461D6002F017FF40F6382239
:102360002946204602F011FF604BADF82850596C09
:10237000A16403F58052D96A1B6BB161E3645C49C7
:1023800092F8473084F82F3A0991B2F9363092F832
:10239000442084F82E2A012109A8A4F82C3A61636C
:1023A000FFF76AF82946E063FEF7F4FEE06B0221CE
:1023B000FEF7A2FFE06B0221FEF7DEFFE06B0221D9
:1023C000FFF71AF8E36B1B689A6802F00702062A07
:1023D0006CD1002501264FF4801284F8386084F80F
:1023E000205084F828506662009202F18042A2F5E3
:1023F0006E220D924FF480720223ADF83C204FF410
:1024000000721946ADF8282009A82A4609930C95B0
:102410000E958DF82A50FEF7CBFDE062FEF714FE14
:10242000E06A2946FEF7C2FD3249334884F8286045
:1024300040F6C41203F053FB304BC4F8183A03F1D2
:102440003A5303F5BB132E4AC4F81C2A072103F2A2
:102450009D1328462165C4F8203A84F8305A257027
:102460006660FEF77BFC2B462A462946CDE90566C9
:10247000CDE90355CDE901550095E060FEF782FCFA
:102480002846267225746661FEF768FCCDE905666C
:10249000CDE90355CDE9015500952B46E0612A466B
:1024A0002946FEF76FFC26762CB070BD1A685207DD
:1024B00010D41A6842F004021A605A6942F001020C
:1024C0005A611A6822F004021A601A6842F0010286
:1024D0001A607EE75A6942F001025A61F5E700BFCF
:1024E000601C002028120020201200200000002084
:1024F00000000140647300087C120020E5559A1525
:10250000B53B121F10B5294C237823B9636801220B
:102510009342227021D094F8301029B9636B0122C4
:10252000934284F830201FD094F820202AB9636A9F
:1025300001218B4284F820102FD0237C23B96369BA
:1025400001229342227400D010BD237E002BFBD0C9
:10255000E069BDE81040FEF713BD237A002BDAD006
:10256000E068FEF70DFDD6E794F83830002BDBD09D
:10257000E06B0268136823F001031360FEF764FE4A
:10258000E06B0221FEF7D8FEE06B0221FEF714FF9C
:10259000E06B0221FEF750FFC6E794F82830002BCD
:1025A000CBD0E06A0221FEF7B1FDC6E72812002079
:1025B00008B5054902222120FEF77CFF034B4FF4AA
:1025C00080221A6008BD00BFD517000800E100E0B6
:1025D000044B4FF48022C3F88020BFF34F8FBFF32A
:1025E0006F8F704700E100E0F8B555EC104B25F017
:1025F00000470B4B4FF0FF3220463946FEF73EFABC
:1026000060B9074B204639464FF0FF32FEF718FA03
:1026100020B9002DACBF0120FF20F8BD0020F8BD7F
:10262000FFFFEF7F08B553EC102B10461946FEF75D
:1026300025FA003818BF012008BD00BF704700BF51
:1026400030B5044683B081B9114D6B6A019301F036
:10265000F3F900906A6A019B9A4210D3009A019B99
:102660004FF47A7101FB023302E001F0E5F9034611
:10267000181BA34238BF00F1FF3003B030BD01F09A
:10268000DBF96B6A4FF47A7202FB0033F0E700BFAC
:10269000000C004008B5BFF34F8FBFF36F8F094A9E
:1026A0000949136809688B4206D30123136072B687
:1026B000FEF716FF62B608BD591C1160002BF6D05C
:1026C00008BD00BF8C1C0020881C0020024A5368F3
:1026D00043F080535360704700ED00E0284BD3ED8A
:1026E000007AF8EE677A30B467EE807AFCEEE77A2B
:1026F00017EE903AB3F1807F23D3F8EE676A9FED2F
:10270000217A2149C6EE877AFCEEE77A17EE902A05
:102710000132B3FBF2F3013BB3F1807F0A6022D3B5
:102720001A4B1B4C1B491C48F02200254FF0300C63
:10273000256083F823C00860DA7783F8222030BC54
:1027400070471149013B0022B3F1807F0A60E7D254
:102750004FF0E0210D484B61F024072380F823401F
:102760008A610B61DCE74FF0E02208485361F024F6
:102770000021072380F8234091611361D0E700BF57
:102780005C100020FFFF7F4B881C002000ED00E064
:102790008C1C0020901C002095260008EFF3008080
:1027A00001B5EFF3118003B41EF0100F08BFB0EEB7
:1027B000400A0A48006803B488B004A006904FF0AD
:1027C000807007906FF006008646704703BC804714
:1027D000BFF36F8F00DFFEE700BF0000901C0020FA
:1027E0001EF0100F08BFB0EE400A1EF0040F0CBF21
:1027F000EFF30880EFF30980816911F8020C10B142
:1028000001280DD00BE01EF0100F0CBF1AB008B05D
:1028100003BC80F3118803BC80F300880847FEE7FF
:102820004EF61451CEF200010A6842F001020A602D
:102830007047F4E700BF00BF354A136823F00F0369
:1028400043F0020310B51360136803F00F03022B6B
:10285000FAD13049304B0A6822F4404242F48042B7
:102860000A600A6822F480320A601A6822F0F802CC
:1028700042F080021A601A6842F001021A601A6877
:102880009207FCD558682549234A014041F4A841E4
:1028900041F010015960596821F4403141F4803110
:1028A0005960596821F0E04141F48031596019685C
:1028B00041F08071196013689B01FCD59368164C38
:1028C00023F0F0039360936823F4E05343F48053C0
:1028D0009360936823F460439360936823F0030349
:1028E00043F002039360A36803F00C03082BFAD1B2
:1028F0000B4800F0AFFD002000F0C6FB08B172B637
:10290000FEE7D4F88C3023F08073C4F88C3010BD0F
:10291000003C024000700040003802400080BFFFD1
:1029200000BD010530B500249DB0CDE90444CDE9DA
:102930001144CDE91344CDE90844CDE90A44CDE979
:102940000D44CDE90F44CDE91844CDE91A448A4B32
:10295000069415945A6C8948894D42F480725A64E1
:102960005A6C02F480720392039A1A6B42F00402CA
:102970001A631A6B02F004020292029A1A6B42F076
:1029800001021A631A6B02F001020192019A1A6B9A
:1029900042F002021A631B6B03F00203009307224A
:1029A000009B16A90323CDE9162300F0ADFB0322FB
:1029B000032316A973481A94CDE9162300F0A4FB4B
:1029C0000222032316A970481A94CDE9162300F0B9
:1029D0009BFB4FF48073002204A906932846002332
:1029E000CDE9042300F06AFC11A92846CDE9114481
:1029F000CDE91344159400F07DFCAB68634843F4C3
:102A00008063AB604FF48032002308A9CDE908232E
:102A100000F026FC4FF440735D4A93FAA3F33BB1F8
:102A2000B3FA83F34FF4007121FA03F302EB83024C
:102A3000136823F01F0343F0090313604FF0007184
:102A4000544A91FAA1F323B1B3FA83F3D94002EBCC
:102A500081024FF0F873106893FAA3F3002B00F093
:102A60008580B3FA83F34FF0D871D94007238B40A8
:102A7000DB43434C034013604FF488114FF4801242
:102A8000CDE90D1200230DA92046CDE90F3300F04A
:102A90005BFCA36B83F44013C3F3015303EB830389
:102AA0001F209840A36B23EA00034FF00072A3633A
:102AB00092FAA2F1374B21B1B1FA81F1CA4003EB8E
:102AC00082031A682E4C22F007021A6063696FF3C2
:102AD0000B036361A36843F48013A360636823F06E
:102AE00080030DA96360204600F02EFCA36BA26B4F
:102AF000C3F30153C3F10403DBB203EB83031F20D1
:102B000098400B2122EA000201FA03F31343A36366
:102B1000E2684FF0F87393FAA3F353B3B3FA83F375
:102B20004FF44011D94007238B40DB4314491A402E
:102B3000CA604FF44053184A93FAA3F33BB1B3FA77
:102B400083F34FF4805121FA03F302EB83021168FF
:102B50000B4B6FF30B0111609A6842F480129A607C
:102B60005A6822F080025A601DB030BD6FF0070332
:102B70007FE76FF00703D9E7003802400008024002
:102B800000200140000002400004024000230140F8
:102B90002C2001400C2001401420014010B50B48AE
:102BA0000B4C0C220023C0E900424FF420214FF4CB
:102BB0008012C0E90233C0E904128361838300F00C
:102BC00041FF08B172B6FEE710BD00BF941C0020A3
:102BD00000640040F0B500249DB02146202214A8D6
:102BE000CDE90244CDE9044402F0CFFACDE909442D
:102BF000CDE90B44CDE90F44CDE91144414E089491
:102C00000E940D941394736C3F4D43F00103736461
:102C1000736C03F0010301930127019B069702A93E
:102C2000402240F634032846CDE9032301F0C8FAD8
:102C30002B6843F080032B60AB6943F00803AB6162
:102C40003946602314AA28461493CDE91544CDE9EA
:102C50001744CDE919441B9401F014FBAB6923F030
:102C60000403AB61AB6943F40063AB6114AA1021A8
:102C7000284601F007FBAB6923F48063AB61EB6985
:102C800043F0080314AAEB614FF48071284601F069
:102C9000F9FAEB6923F00403EB616B6823F070032E
:102CA00043F020036B60AB6843F08003AB6000220D
:102CB0000023CDE9082308A94FF400520023284639
:102CC000CDE90C230A948DF82C40ADF82E4001F08C
:102CD000B9FB336B3B433363336B3B4000934FF49F
:102CE000E0600222009B0E900F92012300220EA9A9
:102CF0000648CDE91223CDE9104400F005FA1DB0D5
:102D0000F0BD00BF0038024000000140000002405A
:102D100070B5002490B0CDE90844CDE90A44CDE96E
:102D20000C44CDE905443B4B0E941A6C42F400323E
:102D30001A641A6C02F400320192019A1A6B42F082
:102D400001021A631B6B0C2003F001030221CDE981
:102D5000020100930322072302A92F48009D049239
:102D6000079300F0D1F92D4B2D4DD3F8882022F098
:102D7000606242F00062C3F88820D3F8882022F015
:102D8000C002C3F88820D3F8882022F44032C3F868
:102D90008820D3F8882022F49072C3F88820D3F8D2
:102DA000882022F40072C3F88820D3F8882042F4E7
:102DB0008062C3F88820D3F8882022F4C052C3F878
:102DC0008820D3F8882022F4C042C3F88820D3F8A2
:102DD0009C2022F00402C3F89C204FF4E1360C2220
:102DE000002308A92846CDE90C23CDE90864CDE9E4
:102DF0000A440E9401F044FB2B6923F490432B61A9
:102E00006B6923F02A036B61EB6843F40053EB60BA
:102E100010B070BD00380240000002400060024067
:102E2000004400400A4B0B481A6B0B4942F4001255
:102E30001A631B6B82B003F4001301930022019B01
:102E4000C36881F810234FF480330B6002B07047E1
:102E50000038024000ED00E000E100E070B5002223
:102E60008CB0CDE90522CDE90722CDE90922454BF9
:102E70000B921A6B444942F004021A631A6B02F077
:102E800004020392039A1A6B42F080021A631A6BCF
:102E900002F080020292029A1A6B42F001021A6357
:102EA0001A6B02F001020192019A1A6B42F00202BF
:102EB0001A631B6B03F002030093344B009C4FF02A
:102EC000E0524FF4001088619A61314A5269F02350
:102ED00022F0F00293FAA3F32BB1B3FA83F30221A9
:102EE00001FA03F31A432A4B4FF400545A6104A821
:102EF0000122022304948DF814208DF8163000F07E
:102F0000AFFA94FAA4F4214BDA6834B1B4FA84F439
:102F100064000323A34022EA03021C49CA604FF461
:102F200000530A6893FAA3F33BB1B3FA83F35B004F
:102F3000032101FA03F322EA0302144D12482A6026
:102F400000242023012606A9CDE90636CDE9084450
:102F50000A9400F0D9F88022002306A92846CDE97A
:102F600006230A9400F0D0F84FF4E05306A928464F
:102F7000CDE90636CDE908440A9400F0C5F80CB056
:102F800070BD00BF0038024000000240000802404F
:102F900000380140034B02689A4200D0704700F0AD
:102FA0003FBD00BF000C0040FEE700BFFEE700BFD2
:102FB000FEE700BFFEE700BFFEE700BF704700BFAF
:102FC000704700BF014801F04DB800BFBC1C002095
:102FD00082B00D4B002100915A6C42F480425A6439
:102FE0005A6C02F480420092009A01911A6C42F0ED
:102FF00080521A641B6C03F080530193019B0720DD
:1030000002B000F097BC00BF003802400000000092
:1030100010B51B4A016888B000239142CDE9023304
:10302000CDE90433069301D008B010BD02F5EA32B1
:103030000093106C40F000701064106C00F0007091
:10304000009000980193136B0E4843F00203136342
:10305000136B9FED097B03F0020301930322092305
:1030600002A98DED027BCDE90523019C00F082FAD7
:1030700008B010BDAFF300800003000002000000A4
:10308000006400400004024030B5014689B00022CF
:10309000322000F061FC322000F09AFC0025164B33
:1030A00002951A6C154C42F008021A641B6C03F06E
:1030B000080301A903A80293029B00F039FA00F06B
:1030C00027FA0F4A0F4921604300A2FB03239B0C00
:1030D00040F2E732013B2046C4E903256360A56066
:1030E00000F0EEFE10B1012009B030BD204600F026
:1030F00077FF09B030BD00BF00380240BC1C002083
:1031000083DE1B43000C00402DE9F0470D6895FA63
:10311000A5F2002A7CD0B2FA82F235FA02F377D017
:103120004FF0010C4FF0030E32E00F69D0F80C8025
:1031300093FAA3F636B1B6FA86F676000EFA06F6DC
:1031400028EA060893FAA3F6002E64D0B6FA86F6AB
:103150007600B74047EA0807022CC76041D093FACF
:10316000A3F6076836B1B6FA86F676000EFA06F6CA
:1031700027EA060793FAA3F3002B4ED0B3FA83F3A2
:103180005B009C403C430460013235FA02F33FD0BF
:103190000CFA02F32B40F7D04C68661E012EC4D8FF
:1031A00093FAA3F68F68D0F8088036B1B6FA86F69F
:1031B00076000EFA06F628EA060893FAA3F6002E21
:1031C0004AD0B6FA86F67600B74047EA0807876025
:1031D0004668CF6826EA030603FB07F73E434660CE
:1031E000A3E74F6993FAA3F6CEB1B6FA86F8B8F121
:1031F000070F14DC4FEA880807FA08F64FF00F09AA
:10320000076A09FA08F827EA08073E430662A6E7B4
:103210000020BDE8F08740269BE74023B1E71E0A67
:10322000D0F8248096FAA6F9B9F1000F09D0B9FABE
:1032300089F94FEA89094FF00F0A0AFA09F928EAD1
:10324000090896FAA6F64EB1B6FA86F6B600B74069
:1032500047EA0807476282E74026B5E78026F6E797
:1032600010B4124B124C134AA4689B689268234313
:103270001343DB070BD4D1E9002363B941680E4B3C
:103280000B401343436000205DF8044B704701205E
:103290005DF8044B704744681A43074B2340D1E95B
:1032A0000241134323430B434360ECE700210140F9
:1032B0000020014000220140E010FCFF024680682F
:1032C00010F0010014D110B454680B6824F0407C55
:1032D0008C68496823432CF4807C43EA0C035360D8
:1032E00093685DF8044B23F400630B4393607047CD
:1032F000012070478268D3071CD410B44C68426820
:103300000346CCB922F46842426098680D4A0240F4
:10331000C868024308690968024301F070610A4302
:103320009A60DA6A22F47002224300205DF8044BAE
:10333000DA62704701207047886822F468420243CD
:103340005A60E2E7FDFCFFC08268D3071AD4034647
:1033500010B45A68C8684C6822F4A05202439CB961
:103360005A6098680A6820F47C1102F470220A43BB
:103370009A609A6B22F44012224300205DF8044BBD
:103380009A63704701207047886802435A60E8E7F3
:103390002B498A6802F00C02082A10B437D00C2A94
:1033A0001ED0284B2849042A18BF0B46244A036024
:1033B0009168264CC1F30311615C254CCB404360FE
:1033C0009168C1F38221615C23FA01F18160926806
:1033D000C2F34232A25C5DF8044BD340C360704735
:1033E0004A68194C174B12F4800F4A6808BF2346ED
:1033F0004C6802F03F02B3FBF2F34A68C4F3881151
:1034000001FB03F3C2F30272B3FBF2F3CEE74A68A7
:103410000D4C0C4B12F4800F4A6808BF234602F093
:103420003F024C68B3FBF2F34A68C2F30142C4F3B3
:103430008811013201FB03F35200B3FBF2F3B5E74D
:103440000038024000127A000024F400347D0008A5
:103450002C7D0008014B1860704700BF5C100020F5
:10346000027901680346CAB109B34279012A20D022
:10347000022A29D032BB254A506820EA0100506058
:1034800010680843106000209B7933B1022B34D0C0
:10349000032B2AD0012B1FD0012070471B4B1A6829
:1034A00022EA01021A605A6822EA01025A600020E8
:1034B0007047164A106820EA0100106050680843FF
:1034C0005060E0E70120DFE7104A10680843106011
:1034D000506808435060D6E70C4BDA6822EA0102D4
:1034E000DA609A680A439A607047084B9A680A4300
:1034F0009A60DA680A43DA607047044B9A6822EAF5
:1035000001029A60DA680A43DA607047003C0140C1
:10351000044B05499B68054A0868C3F38223D35CC2
:10352000D8407047003802405C1000202C7D000815
:103530000E4B0F2202609A6802F0030242609A6802
:1035400002F0F00282609A6802F4E052C2609B6866
:10355000DB0810B403F4E053054C036123685DF805
:10356000044B03F00F030B60704700BF00380240AC
:10357000003C02402DE9F04FA44A0B68904285B010
:103580004FF0000200F0D580DFF890824FF0010B81
:103590008A4603E00132102A00F086800BFA02F11D
:1035A00001EA03069943F5D1DAF8044004F0030C6C
:1035B000510003250CF1FF378D40012F6FEA0505FF
:1035C00075D9BCF1030F40F09C8107680CFA01F13A
:1035D0003D40294314F4403F0160DBD08C4D002175
:1035E0000391696C41F480416964696C01F4804124
:1035F0000391039922F0030101F1804101F59C310F
:1036000002F003078D68BF004FF00F0C0CFA07FCA7
:1036100025EA0C0E7F4DA84200F084807E4DA84222
:1036200000F05381DFF8F8C1604500F05581DFF804
:10363000F4C1604500F05781DFF8ECC1604500F04F
:103640005981DFF8E8C160450CBF4FF0060C4FF020
:10365000070C0CFA07F74EEA07058D60D8F8001042
:10366000F543E70354BF29403143C8F80010D8F8A8
:103670000410A70354BF29403143C8F80410D8F8F8
:103680000810E70254BF29403143C8F80810D8F8A1
:103690000C10A40202F1010254BF29403143102A48
:1036A000C8F80C107FF47AAF05B0BDE8F08F8768DA
:1036B00007EA050EDAF80C708F4047EA0E078760BC
:1036C000476827EA060EC4F30017974047EA0E073B
:1036D0004760C76807EA050EDAF808708F4047EAC6
:1036E0000E07BCF1020FC7607FF46FAF4FEAD2093B
:1036F00000EB890902F0070ED9F820700097DAF87C
:1037000010704FEA8E0E07FA0EF701970F2707FA8F
:103710000EFE009F27EA0E0E019F47EA0E07C9F82A
:10372000207052E74FF0010C0CFA07F74EEA07053C
:1037300093E7DFF8DCB04FF0010A02E00132102A13
:10374000B2D00AFA02F403EA04069C43F6D14D68AB
:103750005400032707FA04FC05F003086FEA0C097C
:1037600008F1FF3CBCF1010F62D9B8F1030F40F042
:10377000D280D0F800C008FA04F40CEA090C44EA3C
:103780000C0415F4403F0460D8D000240394DBF807
:10379000444044F48044CBF84440DBF8444004F413
:1037A00080440394039C22F0030404F1804404F554
:1037B0009C3402F0030CD4F808E00F274FEA8C0C7D
:1037C00007FA0CFC2EEA0C0CC4F808C0134CEF03EB
:1037D00024686FEA060C76D404EA0C040F4F3C60B0
:1037E0007C68AF036DD404EA0C040C4F7C60BC68A9
:1037F000EF0264D40CEA0404084FAD02BC60FC681C
:103800005BD40CEA0404054DEC6097E7000002402D
:10381000003802400004024000080240003C014021
:10382000000C024000100240001402400018024048
:10383000D0F808E0CF6809EA0E0E07FA04FC4CEA5B
:103840000E0CC0F808C0D0F804E0C5F3001C2EEA46
:10385000060E0CFA02FC4CEA0E0CC0F804C0D0F8BC
:103860000CE08F6809EA0E0E07FA04FC4CEA0E0C15
:10387000B8F1020FC0F80CC07FF47BAF4FEAD20C56
:103880004FEA8C0C0CF1804C0CF5003C02F0070E5A
:10389000DCF8207000970F694FEA8E0E07FA0EF7DA
:1038A00001970F2707FA0EFE009F27EA0E0E019FD1
:1038B00047EA0E0ECCF820E05BE73443A3E734433D
:1038C0009AE7344391E7344388E74FF0020C0CFA4F
:1038D00007F74EEA0705C0E64FF0030C0CFA07F7AE
:1038E0004EEA0705B9E64FF0040C0CFA07F74EEA6A
:1038F0000705B2E64FF0050C0CFA07F74EEA07058C
:10390000ABE6C76807EA050EDAF808708F4047EAA9
:103910000E07C76059E6DFF818C08F68DCF80CE0C6
:10392000A74009EA0E0E47EA0E0ECCF80CE020E79D
:10393000000002400749CA6803024FF6FF0003F483
:10394000E0630240134343F0BF6343F40033CB60B2
:10395000704700BF00ED00E01B4BDB68C3F30223A0
:1039600000B5C3F1070EBEF1040F03F1040C28BF2C
:103970004FF0040EBCF1060F1CD9A3F1030C4FF05D
:10398000FF3303FA0CF322EA03024FF0FF3303FA8A
:103990000EF321EA030303FA0CF313431B0100287F
:1039A000DBB20ADB00F1604000F5614080F80033D3
:1039B0005DF804FB00229446E7E7044A00F00F009C
:1039C000024413765DF804FB00ED00E0FCEC00E03F
:1039D000002807DB044A4109012300F01F0083404F
:1039E00042F82130704700BF00E100E008B50B4B02
:1039F0001A6842F400721A601A6842F480621A600F
:103A00001A6842F480721A600320FFF793FF0020C7
:103A1000FFF73AFBFFF7DCFA002008BD003C02404C
:103A2000034A044B11681B780B441360704700BFB6
:103A3000041D002058100020014B1868704700BF7B
:103A4000041D002000287BD038B590F820300446B3
:103A5000002B72D02268136843F001031360FFF754
:103A6000EBFF054604E0FFF7E7FF401B0A285BD8A1
:103A700023685A68D107F6D51A6822F002021A6044
:103A8000FFF7DAFF054604E0FFF7D6FF401B0A28E0
:103A90004AD823685A689207F6D4227E012A1A6807
:103AA0000CBF42F0800222F080021A60627E012A7E
:103AB0001A680CBF42F0400222F040021A60A27E57
:103AC000012A1A680CBF42F0200222F020021A607C
:103AD000E27E012A1A680CBF22F0100242F01002A6
:103AE0001A60227F012A1A680CBF42F0080222F0F5
:103AF00008021A60627F012A1A680CBF42F00402B1
:103B000022F004021A60D4E90220216902430A4328
:103B100060696168024301390A4300200121DA61CA
:103B2000606284F8201038BD636A052243F40033D4
:103B3000636284F82020012038BDFFF769FA89E725
:103B40000120704790F82020013A012A06D9426AE4
:103B5000034642F4802201205A627047404BD3F85A
:103B600000220120024330B4C3F80022D3F800221F
:103B700022F47C52C3F80022D3F800224C6A42EAB5
:103B80000422C3F800224A6902F01F04A040D3F8BF
:103B90001C4224EA0004C3F81C42CD69C443002D32
:103BA00045D1D3F80C522540C3F80C52D200CD6851
:103BB0008B8802F1804202F5C84243EA0543C2F80D
:103BC00040328D680B8843EA0543C2F844328B6962
:103BD000234A33BBD2F804322340C2F804320B69C3
:103BE000C3B91F4BD3F814221440C3F814420B6A14
:103BF000012B05D11A4AD2F81C320343C2F81C32F9
:103C0000174AD2F8003223F00103002030BCC2F87A
:103C100000327047124AD2F814320343C2F8143209
:103C2000E5E7D2F804320343C2F80432D7E7012DA6
:103C3000CDD1D3F80C520543C3F80C52D2000D6815
:103C40008B8802F1804202F5C84243EA0543C2F87C
:103C500040328D688B8943EA0543C2F84432B6E7A7
:103C60000064004038B590F82030012B044605D0A0
:103C7000436A43F400234362012038BD02680223F3
:103C800080F82030136823F001031360FFF7D4FE9F
:103C9000054604E0FFF7D0FE431B0A2B07D8236834
:103CA0005B6813F00103F5D16362184638BD636A9F
:103CB000052243F40033636284F82020DCE700BF70
:103CC00030B490F820C005680CF1FF3CBCF1010F46
:103CD000AC6834D814F0E05F38D0C4F30164032C2E
:103CE00042D00120A04018608B68A3B3C86803438A
:103CF000486843EAC00304F1180000012B5005EBAB
:103D0000041C0B69CCF884310B7D012B4FEA0411A4
:103D100005D1DCF8843143F48073CCF884316B181E
:103D20005168C3F88C111268C3F88821DCF880311F
:103D300043F00103002030BCCCF880317047436A67
:103D400043F480234362012030BC7047436A43F44C
:103D500000134362F7E7CB68086843EA405004F178
:103D600018031B01E850CAE7436A43F400034362A7
:103D7000E9E700BF90F82030013B012B01D900207A
:103D80007047036898689A689B681201C0F3806066
:103D900048BF0130DB00F3D50130704790F820C0F8
:103DA0000CF1FF3CBCF1010F65D870B5046841B956
:103DB000E568AE0708D1436A43F40013436201206B
:103DC00070BD2569AD07F6D004EB011C4FEA011E5A
:103DD000DCF8B05105F004059560002D51D0DCF8F9
:103DE000B051ED085560DCF8B05105F00205D56022
:103DF000DCF8B451DCF8B46105F00F0515617444CA
:103E0000DCF8B451C6F3072696612D0CD4F8B861DE
:103E100055611E7002687244D2F8B821120A5A70B5
:103E200002687244D2F8B821120C9A700268724487
:103E3000D2F8B821120EDA7002687244D2F8BC21AE
:103E40001A7102687244D2F8BC21120A5A710268CF
:103E50007244D2F8BC21120C9A7102687244D2F8F2
:103E6000BC21120EDA71026881B9D36843F02003D5
:103E7000D360002070BD436A43F480234362012075
:103E80007047DCF8B0516D0D1560ACE7136943F075
:103E900020031361EDE700BF90F82030013B012BB8
:103EA00001D900207047036819B9D86800F00300F1
:103EB0007047186900F00300704700BF704700BFEB
:103EC000002800F0868038B590F83D30044603F0B5
:103ED000FF02002B78D022683F49022384F83D304E
:103EE0008A4213685CD0B2F1804F30D0A1F57C419A
:103EF0008A422CD001F580618A4228D001F5806188
:103F00008A4224D001F578418A4249D033498A4215
:103F100021D001F580618A421DD001F580618A427D
:103F200019D0A1F598318A4215D001F580618A42F5
:103F300011D001F580618A420DD0A5696168E06801
:103F400023F080032B431360D062916210E0A168DC
:103F500023F070030B432069A16923F440730343EA
:103F600023F08003E0680B4361681360D0629162C4
:103F70000123536184F8463084F83E3084F83F30A2
:103F800084F8403084F8413084F8423084F843307B
:103F900084F8443084F8453084F83D30002038BD42
:103FA000A068216923F07003034323F440730B439B
:103FB000A16923F080030B431360E368D362636855
:103FC000936263691363D3E780F83C20FFF776FFC1
:103FD00081E70120704700BF000001400040014020
:103FE00090F83D30012B2FD103681849022280F848
:103FF0003D20DA688B4242F00102DA6019D0B3F159
:10400000804F16D0124A934213D002F58062934239
:104010000FD002F5806293420BD002F578429342B2
:1040200007D002F57052934203D0A2F59432934226
:1040300004D19A6802F00702062A03D01A6842F0F7
:1040400001021A6000207047012070470000014003
:1040500000040040704700BF704700BF704700BFBA
:10406000704700BF03681A69910710B5044602D56E
:10407000DA6892075FD41A69500702D5DA685107E7
:1040800046D41A69120702D5DA6810072ED41A69C5
:10409000D20602D5DA68D00618D41A69D10702D53B
:1040A000DA68D2075DD41A69100602D5DA681106FB
:1040B0005FD41A69520602D5DA68500661D41A69CB
:1040C000910602D5DA68920643D410BD6FF0100154
:1040D000082219612277DB6913F4407F204664D0FF
:1040E000FFF7BAFF002223682277D6E76FF00801B6
:1040F000042219612277DB699907204652D1FFF724
:10410000A9FF2046FFF7AAFF002223682277BEE717
:104110006FF004010222196122779B6913F4407F3A
:1041200020463CD1FFF796FF2046FFF797FF00227D
:1041300023682277A5E76FF0020101221961027757
:104140009B699B0725D0FFF787FF00222368227712
:1041500091E76FF0200220461A61BDE8104000F0A0
:104160002BB86FF001021A612046FEF713FF236897
:1041700099E76FF080021A61204600F01FF823686B
:1041800097E76FF040021A612046FFF769FF236846
:1041900095E7FFF75FFF2046FFF760FFD5E7FFF7E2
:1041A0005BFFC4E7FFF758FFAEE7FFF753FF20467A
:1041B000FFF754FF96E700BF704700BF704700BF8E
:1041C00030B42D4D8C6803680A88A8423CD0B0F109
:1041D000804F27D0A5F57C45A84223D005F5806502
:1041E000A8421FD005F58065A8421BD005F578458B
:1041F000A84229D0214DA84218D005F58065A842D3
:1042000014D005F58065A84210D0A5F59835A842D0
:1042100028D005F58065A84208D005F58065A8423C
:1042200008D103E04D6823F070032B43C96823F4E1
:1042300040730B430360C4628262436943F001032D
:10424000436130BC002070474D6823F070032B435E
:10425000CD6823F440732B430360C46282620B6910
:104260000363EAE7C96823F440731943044B1960F8
:10427000DC629A62E1E700BF0000014000400140BB
:1042800000180040B1F5807F30B450D026D8012905
:104290006FD0102948D1036A156923F01003036217
:1042A000036A4168846923F0200343EA0513156813
:1042B00024F4E64444EA0524556823F0100343EA55
:1042C00005135F4DA84276D005F58065A84272D0EF
:1042D000D268416084618263036269E0B1F5805F06
:1042E00022D1036A156923F480530362036A446888
:1042F000C16923F4005343EA0533156821F4E6410C
:1043000041EA0521556823F4805343EA05334C4DB7
:10431000A84265D005F58065A84261D0D2684460A6
:10432000C1610264036243E0012030BC7047036A4C
:10433000156923F480730362036A4168C46923F436
:10434000007343EA0523156824F073042C43556871
:1043500023F4807343EA0523394DA8425AD005F56A
:104360008065A84256D0D2684160C461C2630362CE
:104370001EE0036A156923F001030362036A4168C2
:10438000846923F002032B43156824F073042C4343
:10439000556823F001032B43294DA84226D005F58B
:1043A0008065A84222D0D268416084614263036282
:1043B000002030BC7047556923F0800343EA851321
:1043C000956921F4806141EA8501956823F04003F5
:1043D00043EA8513D56921F4006141EAC50177E715
:1043E000956924F4804444EA851497E7556923F0DD
:1043F000080343EA8503956921F480712943956890
:1044000023F0040343EA8503D56921F4007141EAEE
:104410004501C8E7556923F4006343EA852395699C
:1044200021F4805141EA0511956823F4806343EA41
:104430008523D56921F4005141EA451193E700BF76
:104440000000014010B4D1E901240B7B234323F485
:1044500080630C68134323F40063CA89234323F465
:1044600080530C69134323F400534A69234323F414
:104470004043134343645DF8044B0020704700BF82
:10448000C3689B0401D50120704730B54B68C268F2
:104490000D46C9680B4329690B43A96922F41642EA
:1044A00022F00C020B431343C3600369AA6823F490
:1044B00040531343036143696A6923F44073134310
:1044C00085B0436104466846FEF762FF2B4B9C4271
:1044D00018D02B4B9C420ED02A4B9C420BD003F59C
:1044E0004C439C420ED0A3F548439C4203D003F5B5
:1044F00080639C4203D1029808B12B6823B9012044
:1045000005B030BD0398F7E7AA691921B2F5004F4D
:10451000A0FB010115D09A009B0FFCF75DFB1A4927
:10452000A1FB00325209642303FB12031B01323347
:10453000A1FB0313120102EB53139BB2A3600020F3
:10454000DEE7DA184FF000035B41FCF745FB0E4A4B
:10455000A2FB00314909642303FB1103DB00323362
:10456000A2FB0323C3F342121B0902EB011203F463
:10457000F87313449BB2A360E1E700BF0010014051
:1045800000440040004800401F85EB51034AD2F828
:10459000883043F47003C2F88830704700ED00E0C3
:1045A0000120704708B501F063FA162303604FF04D
:1045B000FF3008BD08B501F05BFA16230360FEE783
:1045C00070B5161E07DD0C468D19AFF3008004F898
:1045D000010BA542F9D1304670BD00BF70B5161E63
:1045E00007DD0C468D1914F8010BAFF30080A542CE
:1045F000F9D1304670BD00BF4FF0FF30704700BFAB
:104600004FF400534B600020704700BF01207047FB
:10461000002070470C490D4A0B6810B50C4C121B5A
:104620002BB11844904207D80860184610BD094BBA
:104630000B6018449042F7D901F01AFA0C2303607A
:104640004FF0FF33184610BD0C1D00200000022063
:1046500000040000801E0020DFF834D00D480E4911
:104660000E4A002302E0D458C4500433C4188C42CC
:10467000F9D30B4A0B4C002301E013600432A24231
:10468000FBD3FFF783FF01F0F9F9FCF741FF704717
:1046900000000220000000202011002018800008E7
:1046A00020110020801E0020FEE70000F8B52DED4F
:1046B000028B57EC106B55EC114B00F07BF9304638
:1046C000394622462B46B0EE408AF0EE608AFCF76F
:1046D000D5F930B90022002320462946FCF79CF981
:1046E00030B9B0EE480AF0EE680ABDEC028BF8BDB6
:1046F00001F0BEF900220023212101601046194675
:10470000FCF74CF841EC180BB0EE480AF0EE680AE2
:10471000BDEC028BF8BD00BF51EC100BC1F30A5386
:104720002DE9F041A3F2FF35132D0C46064634DC8B
:10473000002D20DB364B43FA05F801EA080303435A
:104740000F462FD030A3D3E90023FBF747FD00220B
:104750000023FCF789F940B1002C03DD4FF48013EE
:104760002B411F4427EA080400262346324643EC27
:10477000102BBDE8F08124A3D3E90023FBF72EFD25
:1047800000220023FCF770F90028EED0002C36DB65
:10479000344300D01F4C0026E7E7332D06DDB5F586
:1047A000806F25D041EC100BBDE8F081A3F21343DC
:1047B0004FF0FF37DF403842F4D013A3D3E9002392
:1047C000FBF70CFD00220023FCF74EF90028CCD0AB
:1047D000002C334609DD142D06D0C5F13405012225
:1047E000AA4013449E4200D9013423EA0706BCE7DD
:1047F00002460B46FBF7F2FC41EC100BD4E7002617
:104800004FF00044B1E700BF9C7500883CE4377E60
:10481000FFFF0F000000F03F51EC100BC1F30A53F3
:104820002DE9F041A3F2FF35132D0C46064632DC8C
:10483000002D20DB384B43FA05F801EA0803034357
:104840000F462DD032A3D3E90023FBF7C7FC00228B
:104850000023FCF709F940B1002C03DA4FF4801370
:104860002B411F4427EA080400262346324643EC26
:10487000102BBDE8F08126A3D3E90023FBF7AEFCA3
:1048800000220023FCF7F0F80028EED0002C2ADBF1
:1048900000263446E9E7332D06DDB5F5806F1BD0E1
:1048A00041EC100BBDE8F081A3F213434FF0FF374A
:1048B000DF400742F4D016A3D3E90023FBF78EFCB8
:1048C00000220023FCF7D0F80028CED0002C33467D
:1048D00010DB23EA0706C8E702460B46FBF77EFC1F
:1048E00041EC100BDEE724F0004426430DD14FF0DD
:1048F0000044BAE7142D06D0C5F134050122AA40C0
:104900001344B342E5D20134E3E7044C0026ACE79C
:104910009C7500883CE4377EFFFF0F000000F0BF6D
:1049200010EE102AC2F3C7537F3B162B22F0004132
:1049300029DC002B104618DB1A4919410A4221D004
:10494000DFED197A70EE277AF5EEC07AF1EE10FA03
:1049500018DD002A04DA4FF4000242FA03F3184487
:1049600020EA010300EE103A7047DFED0F7A70EE97
:10497000277AF5EEC07AF1EE10FA03DD002A08DBA3
:104980009FED0A0A7047B1F1FF4FFBD330EE000AEA
:104990007047DFED077A0029BFEE000A08BFB0EECE
:1049A000670A7047FFFF7F00CAF2497100000000EC
:1049B0000000008053EC112B2DE9F04723F0004854
:1049C00052EA080155EC104B47D0B74925F0004A90
:1049D0008A45A94641D85042B44E40EA020148EA0D
:1049E000D171B142964638D8C2451F46214605F0DE
:1049F000004C3EDCC0F28480A24200F2818000F0D4
:104A0000B580354245D1BAF1000F34D1002C234690
:104A100040F32A81A64A5B00002B02F1FF32FADC48
:104A2000A24B3B40002B40F09380B8F1000F40F0C8
:104A3000DF80BEF1000F73466DDC9D4E9D48801AED
:104A40001F2800F3F08002F21E4321FA03F30AFA52
:104A500000FA43EA0A0381406AE020462946FBF750
:104A600073FD02460B46FBF799FE41EC100BBDE8C7
:104A7000F08735420DD18F4A4FEACA235B00002BE5
:104A800002F1FF32CCDD5B00002B02F1FF32F5DCDE
:104A9000C6E7864B4FEA2A523B40A2F2FF3293B35D
:104AA0004FEA2850C9F31303A0F2FF3643F48013F2
:104AB000A1EB0E00C7F3130545F48015921B0BD133
:104AC00063E0013858D4A1EB0E04E30F013A03EB85
:104AD00040034FEA440156D07145A3EB0500F0D3E3
:104AE0000028A1EB0E0447DB50EA0403EDD1724B22
:104AF0004FEADC7C03EBCC0393ED000BBDE8F087C1
:104B000045EC104BB3E7B8F1000F71D1BEF1000FC7
:104B1000734640F3B480664E5B00002B06F1FF360F
:104B2000FADC644B9A4289DBC9F3130343F4801324
:104B3000604CA41B1F2C4CDC06F21E452EFA05F51A
:104B400008FA04F00EFA04FE0543A1EB0E00B5E7E7
:104B5000584CA41A4FEA28581F2CA8F2FF3672DDD1
:104B6000564B9B1A01FA03F30021A3E7524B03EBC8
:104B70001C7393ED000B7AE7C80F013A00EB430377
:104B80004FEA4101A8D1A1EB0E005A1B8E4588BF08
:104B900002F1FF32002ABCBF08461A4652EA00035F
:104BA00005D1A4E7C30F03EB42024000013EB2F57A
:104BB000801FF7DB3F4B9E4223DBA2F5801242EAC7
:104BC0000C0106F2FF3641EA0653024643EC102B75
:104BD0004DE73A4D921BA5EB06050EFA05F518BFF9
:104BE0004FF0000E7FF478AF5A1B0846D2E7304AE8
:104BF000304E4FEAC8235B00002B06F1FF36FADC8B
:104C00008FE79B1B142B14DC06F21E41D84002FADE
:104C100001F142FA03F3014343EA0C0C63460A46EE
:104C200043EC102B23E7254B9B1A01FA03F30021D9
:104C30007EE71F2B13DC06F21E4120FA03F302FA73
:104C400001F11943EAE702F21E4321FA03F30AFADB
:104C500004FA43EA0A03A140A1EB0E002AE7174930
:104C6000891B42FA01F1D9E7104B3B407BB14FEA77
:104C700028500F4AA0F2FF36E30A6105ECE7C9F3BA
:104C800013030B4E43F480130B25152456E7B8F19C
:104C9000000FACD1BEF1000F054A73463FF73BAFA2
:104CA00015201646CFE600BFFFFFEF7F0000F07F24
:104CB000EDFBFFFF02FCFFFF487D0008E2FBFFFF6A
:104CC0002DE9F047089D0E4604460F46002B4AD1B9
:104CD00094468C45B2FA82F260D942B1C2F1200307
:104CE000974020FA03F30CFA02FC1F4394404FEA6A
:104CF0001C4E1FFA8CF6B7FBFEF1230C0EFB11774E
:104D000043EA074301FB06F098420AD91CEB030370
:104D100001F1FF3780F01581984240F2128102398B
:104D200063441B1AA4B2B3FBFEF00EFB103344EA3B
:104D3000034400FB06F6A6420AD91CEB040400F16A
:104D4000FF3380F00081A64240F2FD8064440238C7
:104D500040EA0140A41B00211DB1D4400023C5E955
:104D60000043BDE8F0878B4205D90DB1C5E90001CC
:104D700000210846F5E7B3FA83F1002946D1B34292
:104D800002D3824200F2F580841A66EB030201200E
:104D90001746002DE5D0C5E90047E2E7002A40F0BC
:104DA0009380A1EB0C034FEA1C471FFA8CFE0121F4
:104DB000B3FBF7F607FB1630230C43EA00430EFB68
:104DC00006F0984208D91CEB030306F1FF3802D223
:104DD000984200F2D08046461B1AA4B2B3FBF7F00B
:104DE00007FB103344EA03440EFB00FEA64508D936
:104DF0001CEB040400F1FF3302D2A64500F2B6809A
:104E00001846A4EB0E0440EA0640A5E7C1F12007CE
:104E10008B4022FA07FC4CEA030C06FA01FE20FA4A
:104E200007F426FA07F344EA0E0400FA01F84FEA01
:104E30001C404FEA1449B3FBF0FE1FFA8CF600FB4E
:104E40001E3349EA03430EFB06F9994502FA01F2C3
:104E50000BD91CEB03030EF1FF3A80F085809945D6
:104E600040F28280AEF1020E6344A3EB0909A4B2C2
:104E7000B9FBF0F300FB139944EA094403FB06F67F
:104E8000A64208D91CEB040403F1FF3068D2A64205
:104E900066D9023B644443EA0E40A41BA0FB02E631
:104EA000B4427346B14652D34FD05DB1B8EB030262
:104EB00064EB090404FA07F722FA01F31F43CC401C
:104EC000C5E9007400214CE7C2F1200120FA01F38A
:104ED0000CFA02FC26FA01F1964033434FEA1C47D4
:104EE0001FFA8CFEB1FBF7F007FB1016190C41EA14
:104EF000064100FB0EF68E4204FA02F408D91CEBC0
:104F0000010100F1FF382DD28E422BD902386144C5
:104F1000891B9BB2B1FBF7F607FB161143EA01436D
:104F200006FB0EF1994208D91CEB030306F1FF388A
:104F300014D2994212D9023E63445B1A46EA0041F8
:104F400036E73946EDE6184602E7F045ADD2BEEB4E
:104F5000020366EB0C060138B146A6E74646ECE7CD
:104F6000034698E74046D3E7D6467EE764440238D6
:104F700047E708460DE7023E63442DE7002310B5DE
:104F80000446C0E90033C0E904338360818143668D
:104F9000C2818361194608225C3000F0F6F80D4B9F
:104FA00063620D4BA3620D4BE3620D4B23630D4B0C
:104FB00024629C4206D003F16802944202D0D033AE
:104FC0009C4205D104F15800BDE8104000F07ABDC4
:104FD00010BD00BF01510008275100085F510008B3
:104FE00083510008101D0020024A0349034800F0C5
:104FF00069B800BF64100020CD5F00087C1000205D
:1050000041680C4B994210B5044601D000F0DEFF18
:10501000A168094B994202D0204600F0D7FFE16811
:10502000064B994204D02046BDE8104000F0CEBFA8
:1050300010BD00BF101D0020781D0020E01D0020C5
:1050400010B50B4B0B4C0C4A1A6020460022042171
:10505000FFF794FF04F1680001220921FFF78EFF9A
:1050600004F1D0000222BDE810401221FFF786BFF4
:10507000481E0020101D0020E94F0008014800F0E4
:1050800023BD00BF771E0020014800F01FBD00BFF8
:10509000771E002010B50446FFF7F0FF236A1BB10E
:1050A000BDE81040FFF7F0BF044B2362044B1B68C0
:1050B000002BF5D1FFF7C4FFF2E700BF0150000855
:1050C000481E00202DE9F84307468846144600266E
:1050D000D4E90195B9F1010905D52468002CF7D16F
:1050E0003046BDE8F883AB89012B07D9B5F90E30FE
:1050F000013303D029463846C04706436835E9E7FF
:1051000010B50C46B1F90E1000F08EFC0028ABBFB4
:10511000636DA3891B1823F48053ACBF6365A3811F
:1051200010BD002070472DE9F0411F468B89DB053B
:1051300005460C46164605D5B1F90E10022300228D
:1051400000F060FCA389B4F90E1023F48053A3810E
:1051500032463B462846BDE8F04100F077BC10B52A
:105160000C46B1F90E1000F04DFC431CA38915BF8D
:10517000606523F4805343F48053A38118BFA38157
:1051800010BDB1F90E1000F01BBC0244034693425F
:1051900000D1704703F8011BF9E7000038B50B4B4D
:1051A0001D686B6B044653B9242000F053FD024682
:1051B000686320B9064B0748322100F09FFC696BF9
:1051C0002046BDE8384000F007B800BF7810002046
:1051D000587D00086F7D00082DE9F0410C46074618
:1051E00000F06AFF21460546384600F069FF436932
:1051F0009907044603F26C7806D1642298FBF2F317
:1052000002FB1383002B71D14FF4C87298FBF2F3A9
:1052100002FB1383B3FA83F35B095E42644B06F02F
:1052200030061E4400F098F900F0A2F9614B1B68AB
:10523000002B6AD06B6843455AD1D7E900232F6809
:10524000D5E90801002F5BD1824273EB01015EDBDF
:10525000012323622B6D61684FF4616293FBF2F0CE
:1052600002FB10333C2293FBF2F502FB153223685C
:105270009B1AA2682360491B121A3B2B6160A26033
:1052800051DD013161603C3B236063683B2B50DDA5
:105290000132A2603C3B6360A368172B4FDDE269DB
:1052A0000132E261A2690132072AA8BF0022A2618D
:1052B000E268183B0132A3602369E26056F82310CC
:1052C0008A420EDD0B2BA2EB0102E26003F1010228
:1052D00009BF636922610022013302BF2261636159
:1052E000E26100F03FF92046BDE8F081012394E738
:1052F000404600F07DF800289FD14FF0FF3304E0D6
:10530000824273EB010102DA0023236209E0D5E94E
:10531000120182428B41B4BF012300232362002B80
:1053200098D1AB6A97E7002BAFDA013961603C3363
:10533000AAE7002BB0DA013AA2603C33ABE7002BBE
:10534000CFDAE269013AE261A269013A48BF062276
:10535000A261E2681833013AE260A360002AC0D17A
:105360002369013B05D42361236956F82330E360A8
:10537000B7E70B23236163695A1E6261920703F248
:105380006B7305D1642193FBF1F201FB123262B918
:105390004FF4C87293FBF2F102FB1133B3FA83F3BB
:1053A0005B0903F5B673E361DEE70123F9E700BFAC
:1053B000A47E00086C1E0020DFB50C4B4FF0FF36BA
:1053C0004FF0FF376946044600221868CDE90067B0
:1053D00000F006FB0028B8BFCDE90067DDE9000159
:1053E0000CB1C4E9000104B0D0BD00BF78100020AA
:1053F0002DE9F843044600F05FFE40F2B1739C4291
:1054000040F3A3806FF4F6616518A4F2B27340F222
:105410006D12AD1002FB03556FF4C8666FF06302A6
:10542000A4F26D7393FBF2F31D44A319484E44603C
:105430004FF4C8720146B3FBF2F300F150071D446C
:105440000B7AD1F814C04A2B38D1A20705EB0C0314
:1054500006D14FF0640E94FBFEF20EFB124232B9FD
:105460004FF4C87E94FBFEF20EFB12421ABBBCF155
:105470003B0FD4BF4FF0000C4FF0010C6344013BD5
:105480008A694FEAE27CC3FB062C8B6AD2184CEB8C
:10549000E373C1E9082328318F42D1D1D0E9084311
:1054A000D0E912128C429341B4BF01230023036060
:1054B0000120BDE8F8834FF0000CDFE7442B02D158
:1054C00005EB0C03DCE7A30705D1642294FBF2F3A0
:1054D00002FB134393BB4FF4C87294FBF2F302FB3D
:1054E0001343B3FA83F35B09DFF868E0D1F80C905B
:1054F0005B4203F030032A464FF00008734408F182
:105500000108C14553F828E01ADC02F1040807231A
:1055100098FBF3F3C3EBC303A8EB0303BCEB030C4F
:105520000B6903F1FF3348BF0CF1070CC3EBC30356
:105530009C44F44506DA02EB0C03A1E70123D3E710
:105540007244DCE7ACF1070CF3E70020B1E700BFE1
:1055500080510100A07E0008014800F0B4BA00BFED
:10556000741E0020014800F0B0BA00BF741E002075
:10557000014B186800F002B8781000202DE9F04FB8
:105580008DB0074600F098FDBC49BD4D0446384635
:1055900000F058FB064610BBBA4BBB4A1860BB4B29
:1055A000A0621860BA4B2065C3E900224A2100229C
:1055B0000023C4E90300C4E90500C4E90D00C4E9FF
:1055C0000F00C4E90823C4E912232868217284F873
:1055D000301000F047FB2E600DB0BDE8F08F296859
:1055E000002940F08E80286800F03CFB3046FBF735
:1055F00017FB411C384600F05FFB2860002840F094
:105600008680A24ADFF88882DFF878A20023136040
:10561000A04ACAF8003000200021C8E90022C4E9ED
:105620000333C4E90533C4E90801C4E90D33C4E90F
:105630000F33C4E912014A222272A36284F8302097
:10564000236533783A2B08BF013633783C2B62D17F
:10565000751C914A91490AAB284600F0F1FC0028DC
:10566000BADD0A9BDA1E072AB6D8EB5C3E2BB3D113
:1056700002360A9BF518F35C2D2B5AD101354FF0F9
:10568000FF390023ADF81E30ADF8203008AF0AAB6B
:10569000CDE9013703930DF11E03009380490AAB56
:1056A00007AA284600F0CCFC002895DDBDF81E3086
:1056B000BDF820603C2202FB0366BDF81C304FF4AD
:1056C000616202FB03660A9B09FB06F605EB030910
:1056D000EB5C3C2B40F0EE8009F10105714A6F490B
:1056E0000AAB284600F0ACFC002828DC99F8013011
:1056F0003E2B24D1684BA662C8E90033CAF800608B
:105700006AE7FBF783FA00287FF46DAF64E7314660
:1057100000F0DDF975E7604A63490AAB304600F0F6
:105720008FFC00287FF758AF0A9B033B072BA0D9BB
:1057300052E72B2B08BF01354FF00109A1E70A9B67
:10574000DA1E072A3FF648AFEB5C3E2B7FF444AFEE
:1057500009F102090A9B09EB030519F803302D2B07
:1057600040F0B78001354FF0FF390023ADF81C3011
:10577000ADF81E30ADF820300A930AABCDE90273C4
:1057800001930DF11E03009345490AAB07AA284671
:1057900000F056FC002800F3A280A6F56163049394
:1057A0000A9B27461D444FF0000B2B782C2B08BF7B
:1057B000013595F80090B9F14D0F40F0A3800AAB88
:1057C0000DF12602CDE9013209AA0092374903936F
:1057D0000DF12202284600F033FC03287FF4FCAED2
:1057E000BDF822104B1E0B2B3FF6F6AEBDF8242061
:1057F000531E042B3FF6F0AEBDF82630062B3FF6C5
:10580000EBAEC7E9031287F808907B610A9B05EBB2
:10581000030900254FF00203ADF81C30ADF81E500F
:10582000ADF820500A9599F800302F2B40F0968063
:105830000AAB08AACDE901320DF11E0200921C4903
:10584000039307AA484600F0FBFBA84200F38680BA
:105850004A2100220023C4E90355C4E90555C4E9DF
:105860000823C4E90D55C4E90F55C4E91223217278
:10587000A56284F830102565AEE600BFC97D00083A
:105880004C1E0020681E0020CC7D00086C1E0020ED
:1058900070100020527E00085C1E0020D07D0008A1
:1058A000057E0008501E0020E37D0008F17D000801
:1058B000047E00083E4A3F490AAB484600F0C0FB60
:1058C00000287FF717AF0A9B033B072B7FF642AFF9
:1058D00082E62B2B08BF01354FF0010945E7BDF8E3
:1058E0001E20BDF820303C2101FB0233BDF81C20F6
:1058F0004FF4616101FB023309FB03F34FE74FF003
:10590000010B52E7B9F14A0F06BF01354B4644235C
:105910000A220BA92846059300F0CAFADDF82C905C
:10592000059BADF82600A94514D14D23BBF1000F0E
:1059300007D1237203210223C4E90313C4F814B06E
:1059400067E784F830300B220123C4E90D230023DC
:10595000E3635EE780B23B7278615AE7BDF81E20D0
:10596000BDF820303C2101FB0233BDF81C204FF470
:10597000616101FB0233BB610A9D28374D44BBF1D5
:10598000000FBCD0049B23650B4BC8F80030606847
:10599000074BA662C8F80430FFF72AFDA26A236D00
:1059A000CAF800209B1A054A18BF0123136013E6AA
:1059B000501E0020E37D00085C1E00206C1E0020AD
:1059C00038B5064D0023044608462B60FEF714FE4A
:1059D000431C02D12B6803B1236038BD701E002028
:1059E00038B5074D00230446084611462B6001F0E8
:1059F0009FFC431C02D12B6803B1236038BD00BF5C
:105A0000701E002038B5074D044608461146002296
:105A10002A601A46FEF7FCFD431C02D12B6803B135
:105A2000236038BD701E002038B5074D0446084677
:105A3000114600222A601A46FEF7C2FD431C02D11D
:105A40002B6803B1236038BD701E002038B5074DA8
:105A500004460846114600222A601A46FEF7BEFD9B
:105A6000431C02D12B6803B1236038BD701E002097
:105A7000014B1868704700BF7810002070B50D4DBD
:105A80000D4C641BA4100026A64209D10B4D0C4CF2
:105A900001F056FC641BA4100026A64205D170BD7F
:105AA00055F8043B98470136EEE755F8043B984714
:105AB0000136F2E71080000810800008108000080E
:105AC000148000087047704770477047704703465E
:105AD00011F8012B03F8012B002AF9D170470A4471
