:020000040800F2
:10000000000002208938000891220008952200088B
:10001000992200089D220008A1220008000000008B
:10002000000000000000000000000000C91A0008E5
:10003000A522000800000000851A0008B519000874
:10004000D9380008D9380008D9380008D93800084C
:10005000D9380008D9380008D9380008D93800083C
:10006000D9380008D9380008D9380008D93800082C
:10007000D9380008D9380008D9380008D93800081C
:10008000A9220008D9380008E9100008D93800086A
:10009000D9380008D9380008D9380008D9380008FC
:1000A000D9380008D9380008D9380008D9380008EC
:1000B000D9380008D9380008D9380008D9380008DC
:1000C000D9380008D9380008D9380008D9380008CC
:1000D000D9380008D9380008D9380008D9380008BC
:1000E000D9380008D9380008D9380008D9380008AC
:1000F000D9380008D9380008D9380008D93800089C
:10010000D9380008D9380008AD220008D9380008CD
:10011000D9380008D9380008D9380008D93800087B
:10012000D9380008D9380008D9380008D93800086B
:10013000D93800080000000000000000D93800088D
:10014000D9380008D9380008D9380008D93800084B
:10015000D9380008D9380008D9380008D93800083B
:10016000D9380008D9380008D9380008D93800082B
:10017000D9380008D9380008D93800080000000034
:1001800000000000D9380008000000000000000056
:10019000D93800080000000000000000D93800082D
:1001A000000000000000000000000000D938000836
:1001B000D9380008D9380008D9380008D9380008DB
:0401C000D938000822
:1001C80070B54FF0FF0C4CF4E06C1CEA11541DBFE5
:1001D8001CEA135594EA0C0F95EA0C0F00F0DEF8B0
:1001E8002C4481EA030621EA4C5123EA4C5350EA95
:1001F800013518BF52EA033541F4801143F48013E6
:1002080038D0A0FB02CE4FF00005E1FB02E506F076
:100218000042E0FB03E54FF00006E1FB03569CF0CB
:10022800000F18BF4EF0010EA4F1FF04B6F5007FD1
:1002380064F5407404D25FEA4E0E6D4146EB060643
:1002480042EAC62141EA55514FEAC52040EA5E50CC
:100258004FEACE2EB4F1FD0C88BFBCF5E06F1ED876
:10026800BEF1004F08BF5FEA500E50F1000041EBAD
:10027800045170BD06F0004646EA010140EA02005A
:1002880081EA0301B4EB5C04C2BFD4EB0C0541EA7C
:10029800045170BD41F480114FF0000E013C00F391
:1002A800AB8014F1360FDEBF002001F0004170BDB5
:1002B800C4F10004203C35DA0C341BDC04F11404CE
:1002C800C4F1200500FA05F320FA04F001FA05F25A
:1002D80040EA020001F0004221F0004110EBD37027
:1002E80021FA04F642EB06015EEA430E08BF20EA53
:1002F800D37070BDC4F10C04C4F1200500FA04F3F6
:1003080020FA05F001FA04F240EA020001F0004187
:1003180010EBD37041F100015EEA430E08BF20EAFA
:10032800D37070BDC4F1200500FA05F24EEA020E42
:1003380020FA04F301FA05F243EA020321FA04F071
:1003480001F0004121FA04F220EA020000EBD37028
:100358005EEA430E08BF20EAD37070BD94F0000F28
:100368000FD101F00046400041EB010111F4801F5C
:1003780008BF013CF7D041EA060195F0000F18BF0D
:10038800704703F00046520043EB030313F4801F49
:1003980008BF013DF7D043EA0603704794EA0C0F03
:1003A8000CEA135518BF95EA0C0F0CD050EA410619
:1003B80018BF52EA4306D1D181EA030101F0004196
:1003C8004FF0000070BD50EA410606BF10461946BE
:1003D80052EA430619D094EA0C0F02D150EA0136CA
:1003E80013D195EA0C0F05D152EA03361CBF10460B
:1003F80019460AD181EA030101F0004141F0FE41AA
:1004080041F470014FF0000070BD41F0FE4141F42D
:10041800780170BD81F0004102E000BF83F0004325
:1004280030B54FEA41044FEA430594EA050F08BF87
:1004380090EA020F1FBF54EA000C55EA020C7FEA4B
:10044800645C7FEA655C00F0E2804FEA5454D4EBC8
:100458005555B8BF6D420CDD2C4480EA020281EA92
:10046800030382EA000083EA010180EA020281EACA
:100478000303362D88BF30BD11F0004F4FEA01311C
:100488004FF4801C4CEA113102D0404261EB41012B
:1004980013F0004F4FEA03334CEA133302D05242B1
:1004A80063EB430394EA050F00F0A780A4F101046D
:1004B800D5F1200E0DDB02FA0EFC22FA05F28018A7
:1004C80041F1000103FA0EF2801843FA05F359418D
:1004D8000EE0A5F120050EF1200E012A03FA0EFC0C
:1004E80028BF4CF0020C43FA05F3C01851EBE37136
:1004F80001F0004507D54FF0000EDCF1000C7EEB53
:1005080000006EEB0101B1F5801F1BD3B1F5001F90
:100518000CD349085FEA30004FEA3C0C04F10104AF
:100528004FEA445212F5800F80F09A80BCF1004FD8
:1005380008BF5FEA500C50F1000041EB045141EA5A
:10054800050130BD5FEA4C0C404141EB0101013C23
:1005580028BFB1F5801FE9D291F0000F04BF014612
:100568000020B1FA81F308BF2033A3F10B03B3F1E4
:1005780020020CDA0C3208DD02F1140CC2F10C0274
:1005880001FA0CF021FA02F10CE002F11402D8BFD2
:10059800C2F1200C01FA02F120FA0CFCDCBF41EA9E
:1005A8000C019040E41AA2BF01EB0451294330BD6D
:1005B8006FEA04041F3C1CDA0C340EDC04F114044A
:1005C800C4F1200220FA04F001FA02F340EA030021
:1005D80021FA04F345EA030130BDC4F10C04C4F167
:1005E800200220FA02F001FA04F340EA0300294647
:1005F80030BD21FA04F0294630BD94F0000F83F491
:10060800801306BF81F480110134013D4EE77FEA73
:10061800645C18BF7FEA655C29D094EA050F08BFBF
:1006280090EA020F05D054EA000C04BF19461046A0
:1006380030BD91EA030F1EBF0021002030BD5FEAE4
:10064800545C05D14000494128BF41F0004130BD0C
:1006580014F580043CBF01F5801130BD01F0004560
:1006680045F0FE4141F470014FF0000030BD7FEAD3
:10067800645C1ABF194610467FEA655C1CBF0B46CE
:10068800024650EA013406BF52EA033591EA030FE5
:1006980041F4002130BD00BF90F0000F04BF0021DD
:1006A800704730B54FF4806404F132044FF0000510
:1006B8004FF0000150E700BF90F0000F04BF002189
:1006C800704730B54FF4806404F1320410F00045EF
:1006D80048BF40424FF000013EE700BF42004FEAEA
:1006E800E2014FEA31014FEA02701FBF12F07F4367
:1006F80093F07F4F81F06051704732F07F4208BF1E
:10070800704793F07F4F04BF41F40021704730B524
:100718004FF4607401F0004521F000411CE700BF70
:1007280050EA010208BF704730B54FF000050AE0F3
:1007380050EA010208BF704730B511F0004502D5F4
:10074800404261EB41014FF4806404F132045FEAF6
:10075800915C3FF4D8AE4FF003025FEADC0C18BF9F
:1007680003325FEADC0C18BF033202EBDC02C2F191
:10077800200300FA03FC20FA02F001FA03FE40EA23
:100788000E0021FA02F11444BDE600BF4A0011D25E
:1007980012F5001211D20DD56FF47873B3EB6252D3
:1007A8000ED44FEAC12343F0004343EA505323FADF
:1007B80002F070474FF00000704750EA013002D154
:1007C8004FF0FF3070474FF00000704753B94AB9F7
:1007D800002908BF00281CBF4FF0FF314FF0FF3041
:1007E80000F00CB8ADF1080C6DE904CE03F0BCF8CC
:1007F800DDF804E0DDE9022304B07047704700BF6C
:100808000348044B834202D0034B03B11847704797
:100818007010002070100020000000000548064BF2
:100828001B1AD90F01EBA301491002D0034B03B1E6
:10083800184770477010002070100020000000005A
:1008480010B5064C237843B9FFF7DAFF044B13B110
:100858000448AFF300800123237010BD70100020FE
:1008680000000000843C000808B5054B1BB1054991
:100878000548AFF30080BDE80840FFF7CFBF00BFD1
:100888000000000074100020843C000858B908B526
:10089800064B1A792AB90648186001221A7102F023
:1008A80051FB024808BD0020704700BFB810002067
:1008B800041200202DE9F04F8BB00C46BDF85060B3
:1008C800BDF854E09DF858C09DF85C509DF86090C4
:1008D8009DF864A09DF8681010B10779012F02D027
:1008E8000BB0BDE8F08F234FC4EBC40807EB4808F2
:1008F80018F805B04FEAC408BBF1000FF0D1BCF1FD
:10090800000C18BF4FF0010C003918BF01210891E5
:10091800B9F1000118BF01210691BAF1000118BF11
:1009280001210791012C4FF00E01CDE90023CDE9FB
:10093800026ECDF810C0059509910DD0A8EB0408FA
:1009480007EB48076946006802F06CFA7B5D0133E3
:100958007B550BB0BDE8F08F46EA0E0633431343D0
:10096800ECD155EA0909E9D1BAF1010F08BF05919F
:10097800E4E700BF8C1000202DE9F04188B00C4658
:10098800002101919DF838609DF83C10109D10B130
:100998000779012F04D00027384608B0BDE8F08158
:1009A800D0F8008073B303920423003E18BF0126D9
:1009B800049376000023059606918DF81C3002F00A
:1009C800ABF9064603E000F0ABFFA8420AD8D8F816
:1009D80000309B6803F04073B3F1407F4FF0010192
:1009E8003046F0D001AB224602A9404602F0D8FAC0
:1009F80050B1404602F02EFB119B1860384608B0F3
:100A0800BDE8F0810292D0E7404602F023FB119B3B
:100A18001860C0E72DE9F04788B0DDF84C8010B1C8
:100A28000779012F04D00027384608B0BDE8F087C1
:100A380015461E46D0F800A00C4602F06DF9149A2F
:100A480000238146136003E000F06AFF404508D8A0
:100A58002146504602F090FB034601214846002BF0
:100A6800F2D02146504602F087FB0028DCD02B4606
:100A780001AA2146504602F001FB0028D4D12146A4
:100A8800504602F079FBDDE90131039A149C002AF3
:100A980020601098049A16BF0B460021012133608C
:100AA80001701199059B0A70129A1370BBE700BF79
:100AB800704700BF01690A6802F00402002A034671
:100AC80014BF0120002008D010B402226FF00404E3
:100AD8000C609A725DF8044B70477047704700BF0E
:100AE80030B4234D0469AC422AD1224D4FF0000C9A
:100AF800012B2C6185F807C01FD022B36B7A082B15
:100B08001BD0C368EB6003682B6043696B61837912
:100B1800AB7103792B71E36A029A23F470031343D0
:100B28000129E36207D004291CD0022903D1636894
:100B380043F02003636008236B720E4830BC704793
:100B4800002030BC7047AB7A082BF6D043796B7124
:100B5800022903D1636843F08003636008230548D2
:100B6800AB72EBE7A36843F44073A360E3E700BF0D
:100B780000200140C010002003699A68D20703D4FE
:100B88009A6842F001029A60704700BF03692BB16E
:100B980001293AD0042903D002291FD00120704727
:100BA800996811F4401FF9D101218172996841F4C3
:100BB80080019960817A02295FFA81FCFAD1417932
:100BC80041B138331CFB012C53F8041F22F8021BD7
:100BD8009445F9D10823837200207047817A20292F
:100BE80002D0817A0229D9D141794FF0080C80F8D6
:100BF8000AC00029F0D0383302EB410053F8041F33
:100C080022F8021B8242F9D1E6E79A6812F4401FE3
:100C1800C4D1827A022A05D0827A082A02D01A68B8
:100C28005207BBD5827A082A0CBF01222022827281
:100C38009A6842F480029A60CEE700BF036910B454
:100C48009C68E40703D59C6824F001049C605C68F8
:100C5800640603D55C6824F040045C605C68640149
:100C680003D55C6824F080645C60A2B1012903D0DC
:100C7800022921D004291AD0002240218271027150
:100C88004172D96AC26021F4700102604261D9627E
:100C98005DF8044B70474024022942718472F7D1F1
:100CA8005A685DF8044B22F080025A6070479A68CF
:100CB80022F440729A60DFE75A6822F020025A60F4
:100CC800DAE700BFCB0703D50368DA6852064DD5CB
:100CD8008B0703D50368DA68920742D54B0703D51B
:100CE8000368DA68520737D50B0703D50368DA6853
:100CF80012072CD5CB0603D50368DA68D20621D5AE
:100D08008B0603D50368DA68D20716D54B0603D5D8
:100D18000368DA6812060BD5090603D50368DA6892
:100D2800920600D57047DA6842F02002DA60704710
:100D3800DA6842F08002DA60EEE7DA6842F001022F
:100D4800DA60E3E7DA6842F01002DA60D8E7DA68D6
:100D580042F00802DA60CDE7DA6842F00402DA60AD
:100D6800C2E7DA6842F00202DA60B7E7DA6842F00E
:100D78004002DA60ACE700BFCB0703D50368DA6846
:100D880052064CD48B0703D50368DA68920741D41E
:100D98004B0703D50368DA68520736D40B0703D527
:100DA8000368DA6812072BD4CB0603D50368DA6820
:100DB800D20620D48B0603D50368DA68D20715D586
:100DC8004B0603D50368DA6812060AD4090607D564
:100DD8000368DA68920603D5DA6822F02002DA603E
:100DE8007047DA6822F08002DA60EFE7DA6822F00A
:100DF8000102DA60E4E7DA6822F01002DA60D9E783
:100E0800DA6822F00802DA60CEE7DA6822F0040233
:100E1800DA60C3E7DA6822F00202DA60B8E7DA6873
:100E280022F04002DA60ADE70229036814D00D4AC7
:100E3800934204D002F58062934200D070470329A0
:100E480005D00429FAD11A6A42F001021A621A6A14
:100E580042F004021A6270471A6A42F001021A62EA
:100E6800704700BF000001400229036814D00D4AF2
:100E7800934204D002F58062934200D07047032960
:100E880005D00429FAD11A6A22F001021A621A6AF4
:100E980022F004021A6270471A6A22F001021A62EA
:100EA800704700BF000001400229036814D00D4AB2
:100EB800934204D002F58062934200D07047032920
:100EC80005D00429FAD11A6A42F010021A621A6A85
:100ED80042F040021A6270471A6A42F010021A621F
:100EE800704700BF000001400229036814D00D4A72
:100EF800934204D002F58062934200D070470329E0
:100F080005D00429FAD11A6A22F010021A621A6A64
:100F180022F040021A6270471A6A22F010021A621E
:100F2800704700BF000001400229036814D00D4A31
:100F3800934204D002F58062934200D0704703299F
:100F480005D00429FAD11A6A42F480721A621A6A20
:100F580042F480621A6270471A6A42F480721A6216
:100F6800704700BF000001400229036814D00D4AF1
:100F7800934204D002F58062934200D0704703295F
:100F880005D00429FAD11A6A22F480721A621A6A00
:100F980022F480621A6270471A6A22F480721A6216
:100FA800704700BF000001400C4B0168994212D104
:100FB8000A680B4812F0600201600AD10B68074BFF
:100FC80002715A6C42F400425A641B6B4371044824
:100FD80070470122F3E700231960FFDE000001409B
:100FE800DC1000200F3812010106C3B2D2B206D4B9
:100FF80003F1604303F5614383F800237047034915
:1010080003F00F0319440A76704700BFFCEC00E0B8
:1010180010B5094C23785A1C227023B1074A237053
:101028000121116010BD62B600F064FA72B623782F
:10103800013BDBB2237010BD6A1100206C11002047
:10104800F8B5234C234D002727702F7001DF01F0DE
:101058003DFE00F061FD00F061FC01F06FF801F069
:1010680051F800F0C5FF00F0CDFD00F023FF00F0BF
:1010780005FF194B1E68376000F034FC00F0B4FA25
:1010880072B69FED160A00F099FC3368B3FA83F341
:101098005B092B7062B662B606E03368003B18BF86
:1010A8000123237023785BB92B7803F0FF07002B0B
:1010B800F3D100F0C1FB00F025FC72B63846F8BD4C
:1010C8004FF0E022136923F001031361ECE700BF3E
:1010D80069110020681100209C3C0008CDCC4C3ED2
:1010E800F0B5DC4C2DED028B63681B0683B007D48A
:1010F800BFF36F8FBFF34F8F03B0BDEC028BF0BD12
:10110800D548FFF7D7FC0028F2D0D44B6FF0040283
:1011180022601B78012BEBD1D14ED24D96F853703B
:10112800B5F85810B5F85600CF4AB6F85030938441
:10113800FFB2884282F82A70CC491BB200F27E8145
:10114800002F40F0CC814FF4E05088618F61C84C8B
:10115800D4ED176AC6ED106A07EE903AB5F950302B
:10116800D4ED1A5A94ED1B6AD4ED1C8A96ED118AB7
:10117800B8EEE77A07EE903AFAEEC77A95F85E305D
:1011880067EE877A67EEA67AB0EEE77A27EE257AD9
:1011980027EE067AF4EE478AF1EE10FA48BFF0EE31
:1011A800478AEBB996F85230002B40F08D81D2ED8A
:1011B800087A37EE888AB0EE480A02F08BFBBDEE5B
:1011C800C00A10EE103A1BB200EE103AF8EEC07AE0
:1011D80095F85D3086F8523038EE678A86ED118AC8
:1011E800D5ED0C7A95ED0D7A28EE278AD4ED147A90
:1011F80028EE078AB4EEE78AF1EE10FA40F13E8154
:10120800B0EE480A02F066FBBDEEC00A10EE103AD6
:101218001BB200EE103AF8EEC07A38EE678AD5EDC8
:101228000E7A94ED1D7A28EE278AB4EEE87AFCEE61
:10123800C87AF1EE10FA17EE903A9BB208D494ED02
:101248001E7AB4EEE87AF1EE10FAD8BFB0EE687AFA
:10125800B5F94820D4ED156A1A4404EB8202D2EDA0
:101268001F5AB5F94C201A4404EB820292ED1F6A0A
:10127800B5F946201A4404EB820292ED1F5AB5F9DB
:101288004A201A4404EB8202D2ED1F4A002F00F0D4
:10129800018107EE903AF8EE677A74EEC64A38EEA6
:1012A800678A35EE655AA4EE886AE5EE085A66EE56
:1012B800864AD4ED0B7A9FED705A94ED0D4AE5EE0F
:1012C800874A66EEA56A64EEA77AE7EE466A35EEC7
:1012D800675A94ED0A7AD4ED095A94ED0E6AD7EE5E
:1012E800267AA7EE665AD4ED0C6AB0EE657AA6EEB9
:1012F800247AB0EE656AA7EE846AE5EE265AD4ED44
:101308000F7AD4ED086A27EE277A27EE866A67EE09
:10131800A57A27EE267A26EE266A67EEA67AB5EE35
:10132800C07AF1EE10FAF26B00F1CB80DFED516A72
:10133800B4EE667AF1EE10FAC8BFB0EE667A1368BA
:101348001179DA6ADFED4B5A586BB1FA81F1490924
:101358000A4406EE902AF8EE666AB5EEC06A26EEF2
:10136800877AC7EE256ABCEEE67A17EE102A824223
:1013780018BF5A63F1EE10FA00F1A0809FED3D7A94
:10138800B4EE476AF1EE10FAC8BFB0EE476ADA6AFF
:10139800DFED385A986B0A4407EE102AB8EE477A00
:1013A800F5EEC07A27EE067AC7EE256ABCEEE67A35
:1013B80017EE102A824218BF9A63F1EE10FA7AD417
:1013C8009FED2C7AF4EE477AF1EE10FAC8BFF0EEF2
:1013D800477ADA6ADFED276AF06A0A4407EE102ACC
:1013E800B8EE477AD96B67EE277A87EEA67AFCEED5
:1013F800C77A17EE902A8A4218BFDA63022101AA37
:10140800FFF7C4FBD5ED0F6AD5ED107AD4ED005A7D
:1014180094ED166A86EEA77AD6ED107AD4ED186A9E
:1014280027EE257AE7EE067AF4EEE67AF1EE10FA80
:10143800C6ED107A35DDC6ED106A59E6002F54D096
:101448004FF4E050886100208861D6ED106A084C9E
:1014580082E600BF00200140C01000206811002073
:101468007411002000100020C8110020000802405C
:10147800000000200000C84200000000FDEEC87A0D
:1014880017EE903A1BB207EE903AF8EEE77A38EE8C
:10149800678AC4E694ED107AB0EE476AF0EE477AB0
:1014A8003DE794ED197AF4EEC77AF1EE10FA48BFE9
:1014B80086ED107A1CE65FED107A8AE71FED126A56
:1014C80065E71FED137A3AE7D5ED096A95ED0A7AD3
:1014D80067EEA67A67EE877AC2ED087A69E6002099
:1014E80088614FF0E0508861AFE74FF0E0508F61BE
:1014F80088612CE62DE9F04F374E384D89B001232D
:1015080006AFCDE90337F31E341F0293B31ECDE9AE
:10151800004304F110023346E8680021FFF77AFA25
:101528000023E37000220023C4E902236378042B1C
:1015380045D0DFF8ACB094F829A0B4F8276094F847
:1015480026800BF58059D4E90601FFF71FF999F8B1
:101558005A400397BBF80630BBF8042022401C40D1
:10156800002362F3070399F86020C0B264F30F23E5
:1015780060F31743104460F31F6304226420CDE92D
:101588000120079300230093E86940F2212207A96C
:10159800FFF7F2F91AF0010F08BFB9F8443076BA2C
:1015A80008BF13FB06F308F0010814BF33B21BB2DF
:1015B80085F85380A5F8503009B0BDE8F08F63680E
:1015C800B3F5087FB5D116F8043C002BB1D12369D7
:1015D800C4F82630ADE700BFCC11002074110020FC
:1015E80000000020000000002DE9F047DFF844A2C9
:1015F800894C8A4B8A4E0025ACB030222946504689
:101608001D6002F00FFB29465022204602F00AFB1B
:10161800F26D226406F58053726CCAF82020B26C11
:10162800626493F85F2084F85320B3F94E2093F84E
:101638005C3084F852307B4B099309A80123A4F845
:1016480050206363ADF82850FFF7AEFC2946E063ED
:10165800FFF738FBE06B0221FFF7E6FBE06B0221A6
:10166800FFF722FCE06B0221FFF75EFCE36B1B68CF
:101678009A6802F00702062A40F0AE80002501278A
:101688004FF4801284F8205084F8285084F8387079
:101698006762009202F18042A2F56E220D924FF429
:1016A80080720223ADF83C204FF400721946ADF861
:1016B800282009A82A4609930C950E958DF82A50DA
:1016C800FFF70EFAE062FFF757FA2946E06AFFF7DC
:1016D80005FAD6E9060184F82870FFF757F800F4F0
:1016E800004313FA80F203EB104010EB024565D07B
:1016F800D6E902894C4B9D4228BF1D464246D6E991
:1017080004014B46FEF78AFE484BA3FB0523EA1A61
:1017180003EB5203064646481B0C00FB135044F2E9
:10172800A71202FB00F040F6143202FB03F39842C2
:101738003CBF00F1004000F1FF30C01A0F46FEF731
:10174800ABFF4FF400124FF07853FEF739FD024615
:101758000B4630463946FEF733FD42464B46FEF708
:101768005FFE00250126CAE9060128462570666045
:10177800FFF78CF82B462A462946CDE90566CDE9C0
:101788000355CDE901550095E060FFF793F8284629
:10179800267225746661FFF779F8CDE90566CDE90B
:1017A8000355CDE9015500952B46E0612A462946A7
:1017B800FFF780F826762CB0BDE8F087D6E90289D5
:1017C800D6E9040142464B46FEF728FE10A3D3E9AA
:1017D800002306460F46BCE71A68520710D41A6859
:1017E80042F004021A605A6942F001025A611A680A
:1017F80022F004021A601A6842F001021A603DE7FA
:101808005A6942F001025A61F5E700BFAFF3008060
:10181800B60D38C8DA06CC3F7411002070110020CC
:101828000000002000000140FEFFFF7FBD169C065F
:101838001DF30100C811002010B5294C237823B9E5
:10184800636801229342227021D094F8301029B99C
:10185800636B0122934284F830201FD094F8202033
:101868002AB9636A01218B4284F820102FD0237C87
:1018780023B9636901229342227400D010BD237EEC
:10188800002BFBD0E069BDE81040FFF711B9237ABF
:10189800002BDAD0E068FFF70BF9D6E794F8383078
:1018A800002BDBD0E06B0268136823F001031360A0
:1018B800FFF762FAE06B0221FFF7D6FAE06B02212C
:1018C800FFF712FBE06B0221FFF74EFBC6E794F827
:1018D8002830002BCBD0E06A0221FFF7AFF9C6E72A
:1018E8007411002008B5054902222120FFF77AFB70
:1018F800034B4FF480221A6008BD00BFE9100008AE
:1019080000E100E0044B4FF48022C3F88020BFF3CD
:101918004F8FBFF36F8F704700E100E0704700BF43
:1019280030B5044683B081B9114D6B6A019301F05B
:10193800F3F900906A6A019B9A4210D3009A019BBE
:101948004FF47A7101FB023302E001F0E5F9034636
:10195800181BA34238BF00F1FF3003B030BD01F0BF
:10196800DBF96B6A4FF47A7202FB0033F0E700BFD1
:10197800000C004008B5BFF34F8FBFF36F8F094AC3
:101988000949136809688B4206D30123136072B6AC
:10199800FFF73EFB62B608BD591C1160002BF6D05C
:1019A80008BD00BFFC110020F8110020024A53684E
:1019B80043F080535360704700ED00E0284BD3EDAF
:1019C800007AF8EE677A30B467EE807AFCEEE77A50
:1019D80017EE903AB3F1807F23D3F8EE676A9FED54
:1019E800217A2149C6EE877AFCEEE77A17EE902A2B
:1019F8000132B3FBF2F3013BB3F1807F0A6022D3DB
:101A08001A4B1B4C1B491C48F02200254FF0300C88
:101A1800256083F823C00860DA7783F8222030BC79
:101A280070471149013B0022B3F1807F0A60E7D279
:101A38004FF0E0210D484B61F024072380F8234044
:101A48008A610B61DCE74FF0E02208485361F0241B
:101A58000021072380F8234091611361D0E700BF7C
:101A68006C100020FFFF7F4BF811002000ED00E014
:101A7800FC110020001200207D190008EFF30080FF
:101A880001B5EFF3118003B41EF0100F08BFB0EEDC
:101A9800400A0A48006803B488B004A006904FF0D2
:101AA800807007906FF006008646704703BC804739
:101AB800BFF36F8F00DFFEE700BF000000120020B9
:101AC8001EF0100F08BFB0EE400A1EF0040F0CBF46
:101AD800EFF30880EFF30980816911F8020C10B167
:101AE80001280DD00BE01EF0100F0CBF1AB008B083
:101AF80003BC80F3118803BC80F300880847FEE725
:101B08004EF61451CEF200010A6842F001020A6052
:101B18007047F4E700BF00BF354A136823F00F038E
:101B280043F0020310B51360136803F00F03022B90
:101B3800FAD13049304B0A6822F4404242F48042DC
:101B48000A600A6822F480320A601A6822F0F802F1
:101B580042F080021A601A6842F001021A601A689C
:101B68009207FCD558682549234A014041F4A84109
:101B780041F010015960596821F4403141F4803135
:101B88005960596821F0E04141F480315960196881
:101B980041F08071196013689B01FCD59368164C5D
:101BA80023F0F0039360936823F4E05343F48053E5
:101BB8009360936823F460439360936823F003036E
:101BC80043F002039360A36803F00C03082BFAD1D7
:101BD8000B4800F0AFFD002000F0C6FB08B172B65C
:101BE800FEE7D4F88C3023F08073C4F88C3010BD35
:101BF800003C024000700040003802400080BFFFF7
:101C080000BD010530B500249DB0CDE90444CDE9FF
:101C18001144CDE91344CDE90844CDE90A44CDE99E
:101C28000D44CDE90F44CDE91844CDE91A448A4B57
:101C3800069415945A6C8948894D42F480725A6406
:101C48005A6C02F480720392039A1A6B42F00402EF
:101C58001A631A6B02F004020292029A1A6B42F09B
:101C680001021A631A6B02F001020192019A1A6BBF
:101C780042F002021A631B6B03F00203009307226F
:101C8800009B16A90323CDE9162300F0ADFB032220
:101C9800032316A973481A94CDE9162300F0A4FB70
:101CA8000222032316A970481A94CDE9162300F0DE
:101CB8009BFB4FF48073002204A906932846002357
:101CC800CDE9042300F06AFC11A92846CDE91144A6
:101CD800CDE91344159400F07DFCAB68634843F4E8
:101CE8008063AB604FF48032002308A9CDE9082354
:101CF80000F026FC4FF440735D4A93FAA3F33BB11E
:101D0800B3FA83F34FF4007121FA03F302EB830271
:101D1800136823F01F0343F0090313604FF00071A9
:101D2800544A91FAA1F323B1B3FA83F3D94002EBF1
:101D380081024FF0F873106893FAA3F3002B00F0B8
:101D48008580B3FA83F34FF0D871D94007238B40CD
:101D5800DB43434C034013604FF488114FF4801267
:101D6800CDE90D1200230DA92046CDE90F3300F06F
:101D78005BFCA36B83F44013C3F3015303EB8303AE
:101D88001F209840A36B23EA00034FF00072A3635F
:101D980092FAA2F1374B21B1B1FA81F1CA4003EBB3
:101DA80082031A682E4C22F007021A6063696FF3E7
:101DB8000B036361A36843F48013A360636823F093
:101DC80080030DA96360204600F02EFCA36BA26B74
:101DD800C3F30153C3F10403DBB203EB83031F20F6
:101DE80098400B2122EA000201FA03F31343A3638C
:101DF800E2684FF0F87393FAA3F353B3B3FA83F39B
:101E08004FF44011D94007238B40DB4314491A4053
:101E1800CA604FF44053184A93FAA3F33BB1B3FA9C
:101E280083F34FF4805121FA03F302EB8302116824
:101E38000B4B6FF30B0111609A6842F480129A60A1
:101E48005A6822F080025A601DB030BD6FF0070357
:101E58007FE76FF00703D9E7003802400008024027
:101E6800002001400000024000040240002301401D
:101E78002C2001400C2001401420014010B50B48D3
:101E88000B4C0C220023C0E900424FF420214FF4F0
:101E98008012C0E90233C0E904128361838300F031
:101EA80041FF08B172B6FEE710BD00BF0412002062
:101EB80000640040F0B500249DB02146202214A8FB
:101EC800CDE90244CDE9044401F0ACFECDE9094472
:101ED800CDE90B44CDE90F44CDE91144414E0894B6
:101EE8000E940D941394736C3F4D43F00103736487
:101EF800736C03F0010301930127019B069702A964
:101F0800402240F634032846CDE9032301F0C8FAFD
:101F18002B6843F080032B60AB6943F00803AB6187
:101F28003946602314AA28461493CDE91544CDE90F
:101F38001744CDE919441B9401F014FBAB6923F055
:101F48000403AB61AB6943F40063AB6114AA1021CD
:101F5800284601F007FBAB6923F48063AB61EB69AA
:101F680043F0080314AAEB614FF48071284601F08E
:101F7800F9FAEB6923F00403EB616B6823F0700353
:101F880043F020036B60AB6843F08003AB60002232
:101F98000023CDE9082308A94FF40052002328465E
:101FA800CDE90C230A948DF82C40ADF82E4001F0B1
:101FB800B9FB336B3B433363336B3B4000934FF4C4
:101FC800E0600222009B0E900F92012300220EA9CE
:101FD8000648CDE91223CDE9104400F005FA1DB0FA
:101FE800F0BD00BF00380240000001400000024080
:101FF80070B5002490B0CDE90844CDE90A44CDE994
:102008000C44CDE905443B4B0E941A6C42F4003263
:102018001A641A6C02F400320192019A1A6B42F0A7
:1020280001021A631B6B0C2003F001030221CDE9A6
:10203800020100930322072302A92F48009D04925E
:10204800079300F0D1F92D4B2D4DD3F8882022F0BD
:10205800606242F00062C3F88820D3F8882022F03A
:10206800C002C3F88820D3F8882022F44032C3F88D
:102078008820D3F8882022F49072C3F88820D3F8F7
:10208800882022F40072C3F88820D3F8882042F40C
:102098008062C3F88820D3F8882022F4C052C3F89D
:1020A8008820D3F8882022F4C042C3F88820D3F8C7
:1020B8009C2022F00402C3F89C204FF4E1360C2245
:1020C800002308A92846CDE90C23CDE90864CDE909
:1020D8000A440E9401F044FB2B6923F490432B61CE
:1020E8006B6923F02A036B61EB6843F40053EB60E0
:1020F80010B070BD0038024000000240006002408D
:10210800004400400A4B0B481A6B0B4942F400127A
:102118001A631B6B82B003F4001301930022019B26
:10212800C36881F810234FF480330B6002B0704706
:102138000038024000ED00E000E100E070B5002248
:102148008CB0CDE90522CDE90722CDE90922454B1E
:102158000B921A6B444942F004021A631A6B02F09C
:1021680004020392039A1A6B42F080021A631A6BF4
:1021780002F080020292029A1A6B42F001021A637C
:102188001A6B02F001020192019A1A6B42F00202E4
:102198001A631B6B03F002030093344B009C4FF04F
:1021A800E0524FF4001088619A61314A5269F02375
:1021B80022F0F00293FAA3F32BB1B3FA83F30221CE
:1021C80001FA03F31A432A4B4FF400545A6104A846
:1021D8000122022304948DF814208DF8163000F0A3
:1021E800AFFA94FAA4F4214BDA6834B1B4FA84F45F
:1021F80064000323A34022EA03021C49CA604FF487
:1022080000530A6893FAA3F33BB1B3FA83F35B0074
:10221800032101FA03F322EA0302144D12482A604B
:1022280000242023012606A9CDE90636CDE9084475
:102238000A9400F0D9F88022002306A92846CDE99F
:1022480006230A9400F0D0F84FF4E05306A9284674
:10225800CDE90636CDE908440A9400F0C5F80CB07B
:1022680070BD00BF00380240000002400008024074
:1022780000380140034B02689A4200D0704700F0D2
:102288003FBD00BF000C0040FEE700BFFEE700BFF7
:10229800FEE700BFFEE700BFFEE700BF704700BFD4
:1022A800704700BF014801F04DB800BF2C12002054
:1022B80082B00D4B002100915A6C42F480425A645E
:1022C8005A6C02F480420092009A01911A6C42F012
:1022D80080521A641B6C03F080530193019B072002
:1022E80002B000F097BC00BF0038024000000000B8
:1022F80010B51B4A016888B000239142CDE902332A
:10230800CDE90433069301D008B010BD02F5EA32D6
:102318000093106C40F000701064106C00F00070B6
:10232800009000980193136B0E4843F00203136367
:10233800136B9FED097B03F002030193032209232A
:1023480002A98DED027BCDE90523019C00F082FAFC
:1023580008B010BDAFF300800003000002000000C9
:10236800006400400004024030B5014689B00022F4
:10237800322000F061FC322000F09AFC0025164B58
:1023880002951A6C154C42F008021A641B6C03F093
:10239800080301A903A80293029B00F039FA00F090
:1023A80027FA0F4A0F4921604300A2FB03239B0C25
:1023B80040F2E732013B2046C4E903256360A5608B
:1023C80000F0EEFE10B1012009B030BD204600F04B
:1023D80077FF09B030BD00BF003802402C12002042
:1023E80083DE1B43000C00402DE9F0470D6895FA89
:1023F800A5F2002A7CD0B2FA82F235FA02F377D03D
:102408004FF0010C4FF0030E32E00F69D0F80C804A
:1024180093FAA3F636B1B6FA86F676000EFA06F601
:1024280028EA060893FAA3F6002E64D0B6FA86F6D0
:102438007600B74047EA0807022CC76041D093FAF4
:10244800A3F6076836B1B6FA86F676000EFA06F6EF
:1024580027EA060793FAA3F3002B4ED0B3FA83F3C7
:102468005B009C403C430460013235FA02F33FD0E4
:102478000CFA02F32B40F7D04C68661E012EC4D824
:1024880093FAA3F68F68D0F8088036B1B6FA86F6C4
:1024980076000EFA06F628EA060893FAA3F6002E46
:1024A8004AD0B6FA86F67600B74047EA080787604A
:1024B8004668CF6826EA030603FB07F73E434660F3
:1024C800A3E74F6993FAA3F6CEB1B6FA86F8B8F146
:1024D800070F14DC4FEA880807FA08F64FF00F09CF
:1024E800076A09FA08F827EA08073E430662A6E7DA
:1024F8000020BDE8F08740269BE74023B1E71E0A8D
:10250800D0F8248096FAA6F9B9F1000F09D0B9FAE3
:1025180089F94FEA89094FF00F0A0AFA09F928EAF6
:10252800090896FAA6F64EB1B6FA86F6B600B7408E
:1025380047EA0807476282E74026B5E78026F6E7BC
:1025480010B4124B124C134AA4689B689268234338
:102558001343DB070BD4D1E9002363B941680E4B61
:102568000B401343436000205DF8044B7047012083
:102578005DF8044B704744681A43074B2340D1E980
:102588000241134323430B434360ECE7002101401E
:102598000020014000220140E010FCFF0246806854
:1025A80010F0010014D110B454680B6824F0407C7A
:1025B8008C68496823432CF4807C43EA0C035360FD
:1025C80093685DF8044B23F400630B4393607047F2
:1025D800012070478268D3071CD410B44C68426845
:1025E8000346CCB922F46842426098680D4A02401A
:1025F800C868024308690968024301F070610A4328
:102608009A60DA6A22F47002224300205DF8044BD3
:10261800DA62704701207047886822F468420243F2
:102628005A60E2E7FDFCFFC08268D3071AD403466C
:1026380010B45A68C8684C6822F4A05202439CB986
:102648005A6098680A6820F47C1102F470220A43E0
:102658009A609A6B22F44012224300205DF8044BE2
:102668009A63704701207047886802435A60E8E718
:102678002B498A6802F00C02082A10B437D00C2AB9
:102688001ED0284B2849042A18BF0B46244A036049
:102698009168264CC1F30311615C254CCB40436023
:1026A8009168C1F38221615C23FA01F1816092682B
:1026B800C2F34232A25C5DF8044BD340C36070475A
:1026C8004A68194C174B12F4800F4A6808BF234612
:1026D8004C6802F03F02B3FBF2F34A68C4F3881176
:1026E80001FB03F3C2F30272B3FBF2F3CEE74A68CD
:1026F8000D4C0C4B12F4800F4A6808BF234602F0B9
:102708003F024C68B3FBF2F34A68C2F30142C4F3D8
:102718008811013201FB03F35200B3FBF2F3B5E772
:102728000038024000127A000024F400A83C000897
:10273800A03C0008014B1860704700BF6C100020D7
:10274800027901680346CAB109B34279012A20D047
:10275800022A29D032BB254A506820EA010050607D
:1027680010680843106000209B7933B1022B34D0E5
:10277800032B2AD0012B1FD0012070471B4B1A684E
:1027880022EA01021A605A6822EA01025A6000200D
:102798007047164A106820EA010010605068084324
:1027A8005060E0E70120DFE7104A10680843106036
:1027B800506808435060D6E70C4BDA6822EA0102F9
:1027C800DA609A680A439A607047084B9A680A4325
:1027D8009A60DA680A43DA607047044B9A6822EA1A
:1027E80001029A60DA680A43DA607047003C0140E7
:1027F800044B05499B68054A0868C3F38223D35CE8
:10280800D8407047003802406C100020A03C0008F7
:102818000E4B0F2202609A6802F0030242609A6827
:1028280002F0F00282609A6802F4E052C2609B688B
:10283800DB0810B403F4E053054C036123685DF82A
:10284800044B03F00F030B60704700BF00380240D1
:10285800003C02402DE9F04FA44A0B68904285B035
:102868004FF0000200F0D580DFF890824FF0010BA6
:102878008A4603E00132102A00F086800BFA02F142
:1028880001EA03069943F5D1DAF8044004F0030C91
:10289800510003250CF1FF378D40012F6FEA050524
:1028A80075D9BCF1030F40F09C8107680CFA01F15F
:1028B8003D40294314F4403F0160DBD08C4D00219A
:1028C8000391696C41F480416964696C01F4804149
:1028D8000391039922F0030101F1804101F59C3134
:1028E80002F003078D68BF004FF00F0C0CFA07FCCD
:1028F80025EA0C0E7F4DA84200F084807E4DA84248
:1029080000F05381DFF8F8C1604500F05581DFF829
:10291800F4C1604500F05781DFF8ECC1604500F074
:102928005981DFF8E8C160450CBF4FF0060C4FF045
:10293800070C0CFA07F74EEA07058D60D8F8001067
:10294800F543E70354BF29403143C8F80010D8F8CD
:102958000410A70354BF29403143C8F80410D8F81D
:102968000810E70254BF29403143C8F80810D8F8C6
:102978000C10A40202F1010254BF29403143102A6D
:10298800C8F80C107FF47AAF05B0BDE8F08F8768FF
:1029980007EA050EDAF80C708F4047EA0E078760E1
:1029A800476827EA060EC4F30017974047EA0E0760
:1029B8004760C76807EA050EDAF808708F4047EAEB
:1029C8000E07BCF1020FC7607FF46FAF4FEAD20960
:1029D80000EB890902F0070ED9F820700097DAF8A1
:1029E80010704FEA8E0E07FA0EF701970F2707FAB5
:1029F8000EFE009F27EA0E0E019F47EA0E07C9F850
:102A0800207052E74FF0010C0CFA07F74EEA070561
:102A180093E7DFF8DCB04FF0010A02E00132102A38
:102A2800B2D00AFA02F403EA04069C43F6D14D68D0
:102A38005400032707FA04FC05F003086FEA0C09A1
:102A480008F1FF3CBCF1010F62D9B8F1030F40F067
:102A5800D280D0F800C008FA04F40CEA090C44EA61
:102A68000C0415F4403F0460D8D000240394DBF82C
:102A7800444044F48044CBF84440DBF8444004F438
:102A880080440394039C22F0030404F1804404F579
:102A98009C3402F0030CD4F808E00F274FEA8C0CA2
:102AA80007FA0CFC2EEA0C0CC4F808C0134CEF0310
:102AB80024686FEA060C76D404EA0C040F4F3C60D5
:102AC8007C68AF036DD404EA0C040C4F7C60BC68CE
:102AD800EF0264D40CEA0404084FAD02BC60FC6841
:102AE8005BD40CEA0404054DEC6097E70000024053
:102AF800003802400004024000080240003C014047
:102B0800000C02400010024000140240001802406D
:102B1800D0F808E0CF6809EA0E0E07FA04FC4CEA80
:102B28000E0CC0F808C0D0F804E0C5F3001C2EEA6B
:102B3800060E0CFA02FC4CEA0E0CC0F804C0D0F8E1
:102B48000CE08F6809EA0E0E07FA04FC4CEA0E0C3A
:102B5800B8F1020FC0F80CC07FF47BAF4FEAD20C7B
:102B68004FEA8C0C0CF1804C0CF5003C02F0070E7F
:102B7800DCF8207000970F694FEA8E0E07FA0EF7FF
:102B880001970F2707FA0EFE009F27EA0E0E019FF6
:102B980047EA0E0ECCF820E05BE73443A3E7344362
:102BA8009AE7344391E7344388E74FF0020C0CFA74
:102BB80007F74EEA0705C0E64FF0030C0CFA07F7D3
:102BC8004EEA0705B9E64FF0040C0CFA07F74EEA8F
:102BD8000705B2E64FF0050C0CFA07F74EEA0705B1
:102BE800ABE6C76807EA050EDAF808708F4047EACF
:102BF8000E07C76059E6DFF818C08F68DCF80CE0EC
:102C0800A74009EA0E0E47EA0E0ECCF80CE020E7C2
:102C1800000002400749CA6803024FF6FF0003F4A8
:102C2800E0630240134343F0BF6343F40033CB60D7
:102C3800704700BF00ED00E01B4BDB68C3F30223C5
:102C480000B5C3F1070EBEF1040F03F1040C28BF51
:102C58004FF0040EBCF1060F1CD9A3F1030C4FF082
:102C6800FF3303FA0CF322EA03024FF0FF3303FAAF
:102C78000EF321EA030303FA0CF313431B010028A4
:102C8800DBB20ADB00F1604000F5614080F80033F8
:102C98005DF804FB00229446E7E7044A00F00F00C1
:102CA800024413765DF804FB00ED00E0FCEC00E064
:102CB800002807DB044A4109012300F01F00834074
:102CC80042F82130704700BF00E100E008B50B4B27
:102CD8001A6842F400721A601A6842F480621A6034
:102CE8001A6842F480721A600320FFF793FF0020ED
:102CF800FFF73AFBFFF7DCFA002008BD003C024072
:102D0800034A044B11681B780B441360704700BFDB
:102D18007412002068100020014B1868704700BF2B
:102D28007412002000287BD038B590F82030044673
:102D3800002B72D02268136843F001031360FFF779
:102D4800EBFF054604E0FFF7E7FF401B0A285BD8C6
:102D580023685A68D107F6D51A6822F002021A6069
:102D6800FFF7DAFF054604E0FFF7D6FF401B0A2805
:102D78004AD823685A689207F6D4227E012A1A682C
:102D88000CBF42F0800222F080021A60627E012AA3
:102D98001A680CBF42F0400222F040021A60A27E7C
:102DA800012A1A680CBF42F0200222F020021A60A1
:102DB800E27E012A1A680CBF22F0100242F01002CB
:102DC8001A60227F012A1A680CBF42F0080222F01A
:102DD80008021A60627F012A1A680CBF42F00402D6
:102DE80022F004021A60D4E90220216902430A434E
:102DF80060696168024301390A4300200121DA61F0
:102E0800606284F8201038BD636A052243F40033F9
:102E1800636284F82020012038BDFFF769FA89E74A
:102E28000120704790F82020013A012A06D9426A09
:102E3800034642F4802201205A627047404BD3F87F
:102E480000220120024330B4C3F80022D3F8002244
:102E580022F47C52C3F80022D3F800224C6A42EADA
:102E68000422C3F800224A6902F01F04A040D3F8E4
:102E78001C4224EA0004C3F81C42CD69C443002D57
:102E880045D1D3F80C522540C3F80C52D200CD6876
:102E98008B8802F1804202F5C84243EA0543C2F832
:102EA80040328D680B8843EA0543C2F844328B6987
:102EB800234A33BBD2F804322340C2F804320B69E8
:102EC800C3B91F4BD3F814221440C3F814420B6A39
:102ED800012B05D11A4AD2F81C320343C2F81C321E
:102EE800174AD2F8003223F00103002030BCC2F8A0
:102EF80000327047124AD2F814320343C2F814322F
:102F0800E5E7D2F804320343C2F80432D7E7012DCB
:102F1800CDD1D3F80C520543C3F80C52D2000D683A
:102F28008B8802F1804202F5C84243EA0543C2F8A1
:102F380040328D688B8943EA0543C2F84432B6E7CC
:102F48000064004038B590F82030012B044605D0C5
:102F5800436A43F400234362012038BD0268022318
:102F680080F82030136823F001031360FFF7D4FEC4
:102F7800054604E0FFF7D0FE431B0A2B07D8236859
:102F88005B6813F00103F5D16362184638BD636AC4
:102F9800052243F40033636284F82020DCE700BF95
:102FA80030B490F820C005680CF1FF3CBCF1010F6B
:102FB800AC6834D814F0E05F38D0C4F30164032C53
:102FC80042D00120A04018608B68A3B3C8680343AF
:102FD800486843EAC00304F1180000012B5005EBD0
:102FE800041C0B69CCF884310B7D012B4FEA0411CA
:102FF80005D1DCF8843143F48073CCF884316B1844
:103008005168C3F88C111268C3F88821DCF8803144
:1030180043F00103002030BCCCF880317047436A8C
:1030280043F480234362012030BC7047436A43F471
:1030380000134362F7E7CB68086843EA405004F19D
:1030480018031B01E850CAE7436A43F400034362CC
:10305800E9E700BF90F82030013B012B01D900209F
:103068007047036898689A689B681201C0F380608B
:1030780048BF0130DB00F3D50130704790F820C01D
:103088000CF1FF3CBCF1010F65D870B5046841B97B
:10309800E568AE0708D1436A43F400134362012090
:1030A80070BD2569AD07F6D004EB011C4FEA011E7F
:1030B800DCF8B05105F004059560002D51D0DCF81E
:1030C800B051ED085560DCF8B05105F00205D56047
:1030D800DCF8B451DCF8B46105F00F0515617444EF
:1030E800DCF8B451C6F3072696612D0CD4F8B86104
:1030F80055611E7002687244D2F8B821120A5A70DB
:1031080002687244D2F8B821120C9A7002687244AC
:10311800D2F8B821120EDA7002687244D2F8BC21D3
:103128001A7102687244D2F8BC21120A5A710268F4
:103138007244D2F8BC21120C9A7102687244D2F817
:10314800BC21120EDA71026881B9D36843F02003FA
:10315800D360002070BD436A43F48023436201209A
:103168007047DCF8B0516D0D1560ACE7136943F09A
:1031780020031361EDE700BF90F82030013B012BDD
:1031880001D900207047036819B9D86800F0030016
:103198007047186900F00300704700BF704700BF10
:1031A800002800F0868038B590F83D30044603F0DA
:1031B800FF02002B78D022683F49022384F83D3073
:1031C8008A4213685CD0B2F1804F30D0A1F57C41BF
:1031D8008A422CD001F580618A4228D001F58061AD
:1031E8008A4224D001F578418A4249D033498A423B
:1031F80021D001F580618A421DD001F580618A42A3
:1032080019D0A1F598318A4215D001F580618A421A
:1032180011D001F580618A420DD0A5696168E06826
:1032280023F080032B431360D062916210E0A16801
:1032380023F070030B432069A16923F4407303430F
:1032480023F08003E0680B4361681360D0629162E9
:103258000123536184F8463084F83E3084F83F30C7
:1032680084F8403084F8413084F8423084F84330A0
:1032780084F8443084F8453084F83D30002038BD67
:10328800A068216923F07003034323F440730B43C0
:10329800A16923F080030B431360E368D36263687A
:1032A800936263691363D3E780F83C20FFF776FFE6
:1032B80081E70120704700BF000001400040014045
:1032C80090F83D30012B2FD103681849022280F86D
:1032D8003D20DA688B4242F00102DA6019D0B3F17E
:1032E800804F16D0124A934213D002F5806293425F
:1032F8000FD002F5806293420BD002F578429342D8
:1033080007D002F57052934203D0A2F5943293424B
:1033180004D19A6802F00702062A03D01A6842F01C
:1033280001021A6000207047012070470000014028
:1033380000040040704700BF704700BF704700BFDF
:10334800704700BF03681A69910710B5044602D593
:10335800DA6892075FD41A69500702D5DA6851070C
:1033680046D41A69120702D5DA6810072ED41A69EA
:10337800D20602D5DA68D00618D41A69D10702D560
:10338800DA68D2075DD41A69100602D5DA68110620
:103398005FD41A69520602D5DA68500661D41A69F0
:1033A800910602D5DA68920643D410BD6FF0100179
:1033B800082219612277DB6913F4407F204664D024
:1033C800FFF7BAFF002223682277D6E76FF00801DB
:1033D800042219612277DB699907204652D1FFF749
:1033E800A9FF2046FFF7AAFF002223682277BEE73D
:1033F8006FF004010222196122779B6913F4407F60
:1034080020463CD1FFF796FF2046FFF797FF0022A2
:1034180023682277A5E76FF002010122196102777C
:103428009B699B0725D0FFF787FF00222368227737
:1034380091E76FF0200220461A61BDE8104000F0C5
:103448002BB86FF001021A612046FEF713FF2368BC
:1034580099E76FF080021A61204600F01FF8236890
:1034680097E76FF040021A612046FFF769FF23686B
:1034780095E7FFF75FFF2046FFF760FFD5E7FFF707
:103488005BFFC4E7FFF758FFAEE7FFF753FF20469F
:10349800FFF754FF96E700BF704700BF704700BFB3
:1034A80030B42D4D8C6803680A88A8423CD0B0F12E
:1034B800804F27D0A5F57C45A84223D005F5806527
:1034C800A8421FD005F58065A8421BD005F57845B0
:1034D800A84229D0214DA84218D005F58065A842F8
:1034E80014D005F58065A84210D0A5F59835A842F6
:1034F80028D005F58065A84208D005F58065A84262
:1035080008D103E04D6823F070032B43C96823F406
:1035180040730B430360C4628262436943F0010352
:10352800436130BC002070474D6823F070032B4383
:10353800CD6823F440732B430360C46282620B6935
:103548000363EAE7C96823F440731943044B19601D
:10355800DC629A62E1E700BF0000014000400140E0
:1035680000180040B1F5807F30B450D026D801292A
:103578006FD0102948D1036A156923F0100303623C
:10358800036A4168846923F0200343EA0513156838
:1035980024F4E64444EA0524556823F0100343EA7A
:1035A80005135F4DA84276D005F58065A84272D014
:1035B800D268416084618263036269E0B1F5805F2B
:1035C80022D1036A156923F480530362036A4468AD
:1035D800C16923F4005343EA0533156821F4E64131
:1035E80041EA0521556823F4805343EA05334C4DDD
:1035F800A84265D005F58065A84261D0D2684460CC
:10360800C1610264036243E0012030BC7047036A71
:10361800156923F480730362036A4168C46923F45B
:10362800007343EA0523156824F073042C43556896
:1036380023F4807343EA0523394DA8425AD005F58F
:103648008065A84256D0D2684160C461C2630362F3
:103658001EE0036A156923F001030362036A4168E7
:10366800846923F002032B43156824F073042C4368
:10367800556823F001032B43294DA84226D005F5B0
:103688008065A84222D0D2684160846142630362A7
:10369800002030BC7047556923F0800343EA851346
:1036A800956921F4806141EA8501956823F040031A
:1036B80043EA8513D56921F4006141EAC50177E73A
:1036C800956924F4804444EA851497E7556923F002
:1036D800080343EA8503956921F4807129439568B5
:1036E80023F0040343EA8503D56921F4007141EA14
:1036F8004501C8E7556923F4006343EA85239569C2
:1037080021F4805141EA0511956823F4806343EA66
:103718008523D56921F4005141EA451193E700BF9B
:103728000000014010B4D1E901240B7B234323F4AA
:1037380080630C68134323F40063CA89234323F48A
:1037480080530C69134323F400534A69234323F439
:103758004043134343645DF8044B0020704700BFA7
:10376800C3689B0401D50120704730B54B68C26817
:103778000D46C9680B4329690B43A96922F416420F
:1037880022F00C020B431343C3600369AA6823F4B5
:1037980040531343036143696A6923F44073134335
:1037A80085B0436104466846FEF762FF2B4B9C4296
:1037B80018D02B4B9C420ED02A4B9C420BD003F5C1
:1037C8004C439C420ED0A3F548439C4203D003F5DA
:1037D80080639C4203D1029808B12B6823B9012069
:1037E80005B030BD0398F7E7AA691921B2F5004F73
:1037F800A0FB010115D09A009B0FFCF7E7FF1A49BF
:10380800A1FB00325209642303FB12031B0132336C
:10381800A1FB0313120102EB53139BB2A360002018
:10382800DEE7DA184FF000035B41FCF7CFFF0E4AE2
:10383800A2FB00314909642303FB1103DB00323387
:10384800A2FB0323C3F342121B0902EB011203F488
:10385800F87313449BB2A360E1E700BF0010014076
:1038680000440040004800401F85EB51034AD2F84D
:10387800883043F47003C2F88830704700ED00E0E8
:10388800DFF834D00D480E490E4A002302E0D45820
:10389800C4500433C4188C42F9D30B4A0B4C002390
:1038A80001E013600432A242FBD3FFF7DFFF00F010
:1038B800C1F9FDF7C5FB7047000002200000002099
:1038C80070100020C83C00087010002078120020FA
:1038D800FEE7000010EE102AC2F3C7537F3B162BF9
:1038E80022F0004129DC002B104618DB1A49194147
:1038F8000A4221D0DFED197A70EE277AF5EEC07A08
:10390800F1EE10FA18DD002A04DA4FF4000242FA48
:1039180003F3184420EA010300EE103A7047DFED84
:103928000F7A70EE277AF5EEC07AF1EE10FA03DD21
:10393800002A08DB9FED0A0A7047B1F1FF4FFBD35D
:1039480030EE000A7047DFED077A0029BFEE000A63
:1039580008BFB0EE670A7047FFFF7F00CAF24971DF
:1039680000000000000000802DE9F047089D0E4689
:1039780004460F46002B4AD194468C45B2FA82F28F
:1039880060D942B1C2F12003974020FA03F30CFA40
:1039980002FC1F4394404FEA1C4E1FFA8CF6B7FBFB
:1039A800FEF1230C0EFB117743EA074301FB06F0F7
:1039B80098420AD91CEB030301F1FF3780F0158107
:1039C800984240F21281023963441B1AA4B2B3FB35
:1039D800FEF00EFB103344EA034400FB06F6A64251
:1039E8000AD91CEB040400F1FF3380F00081A642E1
:1039F80040F2FD806444023840EA0140A41B0021E3
:103A08001DB1D4400023C5E90043BDE8F0878B42CF
:103A180005D90DB1C5E9000100210846F5E7B3FA5B
:103A280083F1002946D1B34202D3824200F2F580E5
:103A3800841A66EB030201201746002DE5D0C5E97C
:103A48000047E2E7002A40F09380A1EB0C034FEA1D
:103A58001C471FFA8CFE0121B3FBF7F607FB163053
:103A6800230C43EA00430EFB06F0984208D91CEBEE
:103A7800030306F1FF3802D2984200F2D08046468E
:103A88001B1AA4B2B3FBF7F007FB103344EA034454
:103A98000EFB00FEA64508D91CEB040400F1FF3319
:103AA80002D2A64500F2B6801846A4EB0E0440EAFE
:103AB8000640A5E7C1F120078B4022FA07FC4CEA33
:103AC800030C06FA01FE20FA07F426FA07F344EA83
:103AD8000E0400FA01F84FEA1C404FEA1449B3FB00
:103AE800F0FE1FFA8CF600FB1E3349EA03430EFB77
:103AF80006F9994502FA01F20BD91CEB03030EF102
:103B0800FF3A80F08580994540F28280AEF1020E3E
:103B18006344A3EB0909A4B2B9FBF0F300FB1399C2
:103B280044EA094403FB06F6A64208D91CEB040440
:103B380003F1FF3068D2A64266D9023B644443EAE7
:103B48000E40A41BA0FB02E6B4427346B14652D312
:103B58004FD05DB1B8EB030264EB090404FA07F730
:103B680022FA01F31F43CC40C5E9007400214CE759
:103B7800C2F1200120FA01F30CFA02FC26FA01F145
:103B8800964033434FEA1C471FFA8CFEB1FBF7F00F
:103B980007FB1016190C41EA064100FB0EF68E428F
:103BA80004FA02F408D91CEB010100F1FF382DD208
:103BB8008E422BD902386144891B9BB2B1FBF7F6C0
:103BC80007FB161143EA014306FB0EF1994208D997
:103BD8001CEB030306F1FF3814D2994212D9023EB6
:103BE80063445B1A46EA004136E73946EDE6184673
:103BF80002E7F045ADD2BEEB020366EB0C060138D6
:103C0800B146A6E74646ECE7034698E74046D3E7C1
:103C1800D6467EE76444023847E708460DE7023E89
:103C280063442DE702440346934200D1704703F8EA
:103C3800011BF9E770B50D4D0D4C641BA41000264F
:103C4800A64209D10B4D0C4C00F018F8641BA410C7
:103C58000026A64205D170BD55F8043B98470136A9
:103C6800EEE755F8043B98470136F2E7C03C0008F8
:103C7800C03C0008C03C0008C43C0008F8B500BFC0
:103C8800F8BC08BC9E467047F8B500BFF8BC08BC35
:043C98009E4670478D
:103C9C00701100200000000001020304000000006D
:0C3CAC00000000000102030406070809E4
:083CB800B8FCFF7F01000000D1
:043CC000710800087F
:043CC40049080008A3
:103CC80017B7513800FFFF00000000000000000097
:103CD8000000000000006940000000000000000033
:103CE8000000C8420000803FD7B35D3F0000003F9E
:103CF8000000803F0000803F0000803F0000003F40
:103D080000000000000000000000000000000000AB
:103D180000000000000000000000803F00000000DC
:103D28000000803F000000008FC2753B3ACD933FF2
:103D3800CDCC4C3E3333733F000000000000000040
:103D4800A6AD003CA2AC803C6800C13C91A8003DF7
:103D5800E7CE203DB2F2403D7113613D5198803D60
:103D6800E2A4903D2AAFA03DE8B6B03DDCBBC03D23
:103D7800C5BDD03D62BCE03D72B7F03D5B57003E2B
:103D8800F650083E6A48103E963D183E5B30203E8D
:103D98009920283E2F0E303EFDF8373EE3E03F3EA7
:103DA800C2C5473E79A74F3EE985573EF1605F3E61
:103DB8007338673E4D0C6F3E61DC763E90A87E3EC0
:103DC8005C38833E5E1A873E3EFA8A3EECD78E3ECA
:103DD80059B3923E748C963E2F639A3E7A379E3E34
:103DE8004509A23E81D8A53E1FA5A93E0F6FAD3E4D
:103DF8004136B13EA8FAB43E32BCB83ED27ABC3E97
:103E08007836C03E15EFC33E9AA4C73EF856CB3E5F
:103E18002006CF3E03B2D23E925AD63EBEFFD93ECE
:103E28007AA1DD3EB53FE13E62DAE43E7171E83EDB
:103E3800D504EC3E7F94EF3E6020F33E6BA8F63E3F
:103E4800902CFA3EC2ACFD3E7994003F8A50023F66
:103E58008B0A043F77C2053F4678073FF22B093F9C
:103E680073DD0A3FC28C0C3FDA390E3FB2E40F3FD4
:103E7800458D113F8B33133F7FD7143F1879163F79
:103E88005118183F24B5193F894F1B3F7AE71C3F4B
:103E9800F17C1E3FE70F203F56A0213F382E233FDD
:103EA80086B9243F3A42263F4EC8273FBC4B293F9C
:103EB8007DCC2A3F8C4A2C3FE3C52D3F7B3E2F3FCC
:103EC8004EB4303F5727323F9097333FF304353F86
:103ED8007A6F363F20D7373FDE3B393FB09D3A3FB8
:103EE8008FFC3B3F77583D3F60B13E3F4707403F1F
:103EF800265A413FF7A9423FB5F6433F5B40453F4D
:103F0800E486463F4ACA473F880A493F99474A3F9D
:103F180079814B3F22B84C3F90EB4D3FBD1B4F3F43
:103F2800A548503F4372513F9298523F8DBB533F33
:103F380031DB543F79F7553F5F10573FE025583F35
:103F4800F737593FA0465A3FD7515B3F97595C3FD7
:103F5800DC5D5D3FA35E5E3FE65B5F3FA255603F71
:103F6800D44B613F773E623F872D633F0119643F21
:103F7800E100653F23E5653FC3C5663FBFA2673FD4
:103F8800127C683FBA51693FB2236A3FF8F16A3F31
:103F980088BC6B3F5E836C3F79466D3FD5056E3FAD
:103FA8006EC16E3F43796F3F4F2D703F90DD703F7C
:103FB800038A713FA632723F76D7723F7178733F9A
:103FC8009315743FDAAE743F4444753FCFD5753FBF
:103FD8007763763F3CED763F1B73773F11F5773F6C
:103FE8001D73783F3CED783F6D63793FAED5793FDF
:103FF800FD437A3F59AE7A3FBE147B3F2D777B3F16
:10400800A4D57B3F20307C3FA1867C3F25D97C3FCF
:10401800AA277D3F31727D3FB7B87D3F3BFB7D3F8F
:10402800BC397E3F3A747E3FB3AA7E3F26DD7E3F91
:10403800930B7F3FF9357F3F585C7F3FAE7E7F3FD4
:10404800FB9C7F3F3FB77F3F79CD7F3FA9DF7F3F15
:10405800CFED7F3FEAF77F3FFBFD7F3F0000803FCA
:10406800FBFD7F3FEAF77F3FCFED7F3FA9DF7F3F33
:1040780079CD7F3F3FB77F3FFB9C7F3FAE7E7F3F41
:10408800585C7F3FF9357F3F930B7F3F26DD7E3FAE
:10409800B3AA7E3F3A747E3FBC397E3F3BFB7D3FEF
:1040A800B7B87D3F31727D3FAA277D3F25D97C3F38
:1040B800A1867C3F20307C3FA4D57B3F2D777B3F7A
:1040C800BE147B3F59AE7A3FFD437A3FAED5793F68
:1040D8006D63793F3CED783F1D73783F11F5773F6D
:1040E8001B73773F3CED763F7763763FCFD5753FBF
:1040F8004444753FDAAE743F9315743F7178733F4B
:1041080076D7723FA632723F038A713F90DD703FC7
:104118004F2D703F43796F3F6EC16E3FD5056E3F9F
:1041280079466D3F5E836C3F88BC6B3FF8F16A3F10
:10413800B2236A3FBA51693F127C683FBFA2673F0A
:10414800C3C5663F23E5653FE100653F0119643F4C
:10415800872D633F773E623FD44B613FA255603F56
:10416800E65B5F3FA35E5E3FDC5D5D3F97595C3F6A
:10417800D7515B3FA0465A3FF737593FE025583F94
:104188005F10573F79F7553F31DB543F8DBB533FA5
:104198009298523F4372513FA548503FBD1B4F3F35
:1041A80090EB4D3F22B84C3F79814B3F99474A3FAE
:1041B800880A493F4ACA473FE486463F5B40453F35
:1041C800B5F6433FF7A9423F265A413F4707403FCC
:1041D80060B13E3F77583D3F8FFC3B3FB09D3A3F33
:1041E800DE3B393F20D7373F7A6F363FF304353F00
:1041F8009097333F5727323F4EB4303F7B3E2F3F97
:10420800E3C52D3F8C4A2C3F7DCC2A3FBC4B293F30
:104218004EC8273F3A42263F86B9243F382E233FCF
:1042280056A0213FE70F203FF17C1E3F7AE71C3F55
:10423800894F1B3F24B5193F5118183F1879163F6D
:104248007FD7143F8B33133F458D113FB2E40F3FA7
:10425800DA390E3FC28C0C3F73DD0A3FF22B093F5F
:104268004678073F77C2053F8B0A043F8A50023FD2
:104278007994003FC2ACFD3E902CFA3E6BA8F63E06
:104288006020F33E7F94EF3ED504EC3E7171E83E2A
:1042980062DAE43EB53FE13E7AA1DD3EBEFFD93E9B
:1042A800925AD63E03B2D23E2006CF3EF856CB3EB7
:1042B8009AA4C73E15EFC33E7836C03ED27ABC3EBC
:1042C80032BCB83EA8FAB43E4136B13E0F6FAD3E9F
:1042D8001FA5A93E81D8A53E4509A23E7A379E3E34
:1042E8002F639A3E748C963E59B3923EECD78E3E1D
:1042F8003EFA8A3E5E1A873E5C38833E90A87E3E30
:1043080061DC763E4D0C6F3E7338673EF1605F3E70
:10431800E985573E79A74F3EC2C5473EE3E03F3E99
:10432800FDF8373E2F0E303E9920283E5B30203E68
:10433800963D183E6A48103EF650083E5B57003ED0
:1043480072B7F03D62BCE03DC5BDD03DDCBBC03DB1
:10435800E8B6B03D2AAFA03DE2A4903D5198803D1B
:104368007113613DB2F2403DE7CE203D91A8003D7A
:104378006800C13CA2AC803CA6AD003C32310D25A2
:10438800A6AD00BCA2AC80BC6800C1BC91A800BDB1
:10439800E7CE20BDB2F240BD711361BD519880BD1A
:1043A800E2A490BD2AAFA0BDE8B6B0BDDCBBC0BDDD
:1043B800C5BDD0BD62BCE0BD72B7F0BD5B5700BEE5
:1043C800F65008BE6A4810BE963D18BE5B3020BE47
:1043D800992028BE2F0E30BEFDF837BEE3E03FBE61
:1043E800C2C547BE79A74FBEE98557BEF1605FBE1B
:1043F800733867BE4D0C6FBE61DC76BE90A87EBE7A
:104408005C3883BE5E1A87BE3EFA8ABEECD78EBE83
:1044180059B392BE748C96BE2F639ABE7A379EBEED
:104428004509A2BE81D8A5BE1FA5A9BE0F6FADBE06
:104438004136B1BEA8FAB4BE32BCB8BED27ABCBE50
:104448007836C0BE15EFC3BE9AA4C7BEF856CBBE19
:104458002006CFBE03B2D2BE925AD6BEBEFFD9BE88
:104468007AA1DDBEB53FE1BE62DAE4BE7171E8BE95
:10447800D504ECBE7F94EFBE6020F3BE6BA8F6BEF9
:10448800902CFABEC2ACFDBE799400BF8A5002BF20
:104498008B0A04BF77C205BF467807BFF22B09BF56
:1044A80073DD0ABFC28C0CBFDA390EBFB2E40FBF8E
:1044B800458D11BF8B3313BF7FD714BF187916BF33
:1044C800511818BF24B519BF894F1BBF7AE71CBF05
:1044D800F17C1EBFE70F20BF56A021BF382E23BF97
:1044E80086B924BF3A4226BF4EC827BFBC4B29BF56
:1044F8007DCC2ABF8C4A2CBFE3C52DBF7B3E2FBF86
:104508004EB430BF572732BF909733BFF30435BF3F
:104518007A6F36BF20D737BFDE3B39BFB09D3ABF71
:104528008FFC3BBF77583DBF60B13EBF470740BFD8
:10453800265A41BFF7A942BFB5F643BF5B4045BF06
:10454800E48646BF4ACA47BF880A49BF99474ABF57
:1045580079814BBF22B84CBF90EB4DBFBD1B4FBFFD
:10456800A54850BF437251BF929852BF8DBB53BFED
:1045780031DB54BF79F755BF5F1057BFE02558BFEF
:10458800F73759BFA0465ABFD7515BBF97595CBF91
:10459800DC5D5DBFA35E5EBFE65B5FBFA25560BF2B
:1045A800D44B61BF773E62BF872D63BF011964BFDB
:1045B800E10065BF23E565BFC3C566BFBFA267BF8E
:1045C800127C68BFBA5169BFB2236ABFF8F16ABFEB
:1045D80088BC6BBF5E836CBF79466DBFD5056EBF67
:1045E8006EC16EBF43796FBF4F2D70BF90DD70BF36
:1045F800038A71BFA63272BF76D772BF717873BF54
:10460800931574BFDAAE74BF444475BFCFD575BF78
:10461800776376BF3CED76BF1B7377BF11F577BF25
:104628001D7378BF3CED78BF6D6379BFAED579BF98
:10463800FD437ABF59AE7ABFBE147BBF2D777BBFCF
:10464800A4D57BBF20307CBFA1867CBF25D97CBF89
:10465800AA277DBF31727DBFB7B87DBF3BFB7DBF49
:10466800BC397EBF3A747EBFB3AA7EBF26DD7EBF4B
:10467800930B7FBFF9357FBF585C7FBFAE7E7FBF8E
:10468800FB9C7FBF3FB77FBF79CD7FBFA9DF7FBFCF
:10469800CFED7FBFEAF77FBFFBFD7FBF000080BF84
:1046A800FBFD7FBFEAF77FBFCFED7FBFA9DF7FBFED
:1046B80079CD7FBF3FB77FBFFB9C7FBFAE7E7FBFFB
:1046C800585C7FBFF9357FBF930B7FBF26DD7EBF68
:1046D800B3AA7EBF3A747EBFBC397EBF3BFB7DBFA9
:1046E800B7B87DBF31727DBFAA277DBF25D97CBFF2
:1046F800A1867CBF20307CBFA4D57BBF2D777BBF34
:10470800BE147BBF59AE7ABFFD437ABFAED579BF21
:104718006D6379BF3CED78BF1D7378BF11F577BF26
:104728001B7377BF3CED76BF776376BFCFD575BF78
:10473800444475BFDAAE74BF931574BF717873BF04
:1047480076D772BFA63272BF038A71BF90DD70BF81
:104758004F2D70BF43796FBF6EC16EBFD5056EBF59
:1047680079466DBF5E836CBF88BC6BBFF8F16ABFCA
:10477800B2236ABFBA5169BF127C68BFBFA267BFC4
:10478800C3C566BF23E565BFE10065BF011964BF06
:10479800872D63BF773E62BFD44B61BFA25560BF10
:1047A800E65B5FBFA35E5EBFDC5D5DBF97595CBF24
:1047B800D7515BBFA0465ABFF73759BFE02558BF4E
:1047C8005F1057BF79F755BF31DB54BF8DBB53BF5F
:1047D800929852BF437251BFA54850BFBD1B4FBFEF
:1047E80090EB4DBF22B84CBF79814BBF99474ABF68
:1047F800880A49BF4ACA47BFE48646BF5B4045BFEF
:10480800B5F643BFF7A942BF265A41BF470740BF85
:1048180060B13EBF77583DBF8FFC3BBFB09D3ABFEC
:10482800DE3B39BF20D737BF7A6F36BFF30435BFB9
:10483800909733BF572732BF4EB430BF7B3E2FBF50
:10484800E3C52DBF8C4A2CBF7DCC2ABFBC4B29BFEA
:104858004EC827BF3A4226BF86B924BF382E23BF89
:1048680056A021BFE70F20BFF17C1EBF7AE71CBF0F
:10487800894F1BBF24B519BF511818BF187916BF27
:104888007FD714BF8B3313BF458D11BFB2E40FBF61
:10489800DA390EBFC28C0CBF73DD0ABFF22B09BF19
:1048A800467807BF77C205BF8B0A04BF8A5002BF8C
:1048B800799400BFC2ACFDBE902CFABE6BA8F6BEC0
:1048C8006020F3BE7F94EFBED504ECBE7171E8BEE4
:1048D80062DAE4BEB53FE1BE7AA1DDBEBEFFD9BE55
:1048E800925AD6BE03B2D2BE2006CFBEF856CBBE71
:1048F8009AA4C7BE15EFC3BE7836C0BED27ABCBE76
:1049080032BCB8BEA8FAB4BE4136B1BE0F6FADBE58
:104918001FA5A9BE81D8A5BE4509A2BE7A379EBEED
:104928002F639ABE748C96BE59B392BEECD78EBED6
:104938003EFA8ABE5E1A87BE5C3883BE90A87EBEE9
:1049480061DC76BE4D0C6FBE733867BEF1605FBE2A
:10495800E98557BE79A74FBEC2C547BEE3E03FBE53
:10496800FDF837BE2F0E30BE992028BE5B3020BE22
:10497800963D18BE6A4810BEF65008BE5B5700BE8A
:1049880072B7F0BD62BCE0BDC5BDD0BDDCBBC0BD6B
:10499800E8B6B0BD2AAFA0BDE2A490BD519880BDD5
:1049A800711361BDB2F240BDE7CE20BD91A800BD34
:1049B8006800C1BCA2AC80BCA6AD00BC32318DA5DC
:1049C800A6AD003CA2AC803C6800C13C91A8003D6B
:1049D800E7CE203DB2F2403D7113613D5198803DD4
:1049E800E2A4903D2AAFA03DE8B6B03DDCBBC03D97
:1049F800C5BDD03D62BCE03D72B7F03D5B57003E9F
:104A0800F650083E6A48103E963D183E5B30203E00
:104A18009920283E2F0E303EFDF8373EE3E03F3E1A
:104A2800C2C5473E79A74F3EE985573EF1605F3ED4
:104A38007338673E4D0C6F3E61DC763E90A87E3E33
:104A48005C38833E5E1A873E3EFA8A3EECD78E3E3D
:104A580059B3923E748C963E2F639A3E7A379E3EA7
:104A68004509A23E81D8A53E1FA5A93E0F6FAD3EC0
:104A78004136B13EA8FAB43E32BCB83ED27ABC3E0A
:104A88007836C03E15EFC33E9AA4C73EF856CB3ED3
:104A98002006CF3E03B2D23E925AD63EBEFFD93E42
:104AA8007AA1DD3EB53FE13E62DAE43E7171E83E4F
:104AB800D504EC3E7F94EF3E6020F33E6BA8F63EB3
:104AC800902CFA3EC2ACFD3E7994003F8A50023FDA
:104AD8008B0A043F77C2053F4678073FF22B093F10
:104AE80073DD0A3FC28C0C3FDA390E3FB2E40F3F48
:104AF800458D113F8B33133F7FD7143F1879163FED
:104B08005118183F24B5193F894F1B3F7AE71C3FBE
:104B1800F17C1E3FE70F203F56A0213F382E233F50
:104B280086B9243F3A42263F4EC8273FBC4B293F0F
:104B38007DCC2A3F8C4A2C3FE3C52D3F7B3E2F3F3F
:104B48004EB4303F5727323F9097333FF304353FF9
:104B58007A6F363F20D7373FDE3B393FB09D3A3F2B
:104B68008FFC3B3F77583D3F60B13E3F4707403F92
:104B7800265A413FF7A9423FB5F6433F5B40453FC0
:104B8800E486463F4ACA473F880A493F99474A3F11
:104B980079814B3F22B84C3F90EB4D3FBD1B4F3FB7
:104BA800A548503F4372513F9298523F8DBB533FA7
:104BB80031DB543F79F7553F5F10573FE025583FA9
:104BC800F737593FA0465A3FD7515B3F97595C3F4B
:104BD800DC5D5D3FA35E5E3FE65B5F3FA255603FE5
:104BE800D44B613F773E623F872D633F0119643F95
:104BF800E100653F23E5653FC3C5663FBFA2673F48
:104C0800127C683FBA51693FB2236A3FF8F16A3FA4
:104C180088BC6B3F5E836C3F79466D3FD5056E3F20
:104C28006EC16E3F43796F3F4F2D703F90DD703FEF
:104C3800038A713FA632723F76D7723F7178733F0D
:104C48009315743FDAAE743F4444753FCFD5753F32
:104C58007763763F3CED763F1B73773F11F5773FDF
:104C68001D73783F3CED783F6D63793FAED5793F52
:104C7800FD437A3F59AE7A3FBE147B3F2D777B3F89
:104C8800A4D57B3F20307C3FA1867C3F25D97C3F43
:104C9800AA277D3F31727D3FB7B87D3F3BFB7D3F03
:104CA800BC397E3F3A747E3FB3AA7E3F26DD7E3F05
:104CB800930B7F3FF9357F3F585C7F3FAE7E7F3F48
:104CC800FB9C7F3F3FB77F3F79CD7F3FA9DF7F3F89
:104CD800CFED7F3FEAF77F3FFBFD7F3F0000803F3E
:104CE800FBFD7F3FBEB5A43983F9223E00000000DA
:104CF800DB0FC94083F9223E000048440000803F92
:104D080000004040FFFF01000000C900C80000008B
:104D180044440000010001000000FB0900010000FC
:104D28003700000000000000010000000024F4002B
:04000005080038892E
:00000001FF
